{
  "_format": "hh-sol-artifact-1",
  "contractName": "UnchainedTickets",
  "sourceName": "contracts/UnchainedTickets.sol",
  "abi": [
    {
      "inputs": [
        {
          "internalType": "string",
          "name": "baseURI_",
          "type": "string"
        }
      ],
      "stateMutability": "nonpayable",
      "type": "constructor"
    },
    {
      "inputs": [
        {
          "internalType": "address",
          "name": "sender",
          "type": "address"
        },
        {
          "internalType": "uint256",
          "name": "balance",
          "type": "uint256"
        },
        {
          "internalType": "uint256",
          "name": "needed",
          "type": "uint256"
        },
        {
          "internalType": "uint256",
          "name": "tokenId",
          "type": "uint256"
        }
      ],
      "name": "ERC1155InsufficientBalance",
      "type": "error"
    },
    {
      "inputs": [
        {
          "internalType": "address",
          "name": "approver",
          "type": "address"
        }
      ],
      "name": "ERC1155InvalidApprover",
      "type": "error"
    },
    {
      "inputs": [
        {
          "internalType": "uint256",
          "name": "idsLength",
          "type": "uint256"
        },
        {
          "internalType": "uint256",
          "name": "valuesLength",
          "type": "uint256"
        }
      ],
      "name": "ERC1155InvalidArrayLength",
      "type": "error"
    },
    {
      "inputs": [
        {
          "internalType": "address",
          "name": "operator",
          "type": "address"
        }
      ],
      "name": "ERC1155InvalidOperator",
      "type": "error"
    },
    {
      "inputs": [
        {
          "internalType": "address",
          "name": "receiver",
          "type": "address"
        }
      ],
      "name": "ERC1155InvalidReceiver",
      "type": "error"
    },
    {
      "inputs": [
        {
          "internalType": "address",
          "name": "sender",
          "type": "address"
        }
      ],
      "name": "ERC1155InvalidSender",
      "type": "error"
    },
    {
      "inputs": [
        {
          "internalType": "address",
          "name": "operator",
          "type": "address"
        },
        {
          "internalType": "address",
          "name": "owner",
          "type": "address"
        }
      ],
      "name": "ERC1155MissingApprovalForAll",
      "type": "error"
    },
    {
      "inputs": [
        {
          "internalType": "uint256",
          "name": "numerator",
          "type": "uint256"
        },
        {
          "internalType": "uint256",
          "name": "denominator",
          "type": "uint256"
        }
      ],
      "name": "ERC2981InvalidDefaultRoyalty",
      "type": "error"
    },
    {
      "inputs": [
        {
          "internalType": "address",
          "name": "receiver",
          "type": "address"
        }
      ],
      "name": "ERC2981InvalidDefaultRoyaltyReceiver",
      "type": "error"
    },
    {
      "inputs": [
        {
          "internalType": "uint256",
          "name": "tokenId",
          "type": "uint256"
        },
        {
          "internalType": "uint256",
          "name": "numerator",
          "type": "uint256"
        },
        {
          "internalType": "uint256",
          "name": "denominator",
          "type": "uint256"
        }
      ],
      "name": "ERC2981InvalidTokenRoyalty",
      "type": "error"
    },
    {
      "inputs": [
        {
          "internalType": "uint256",
          "name": "tokenId",
          "type": "uint256"
        },
        {
          "internalType": "address",
          "name": "receiver",
          "type": "address"
        }
      ],
      "name": "ERC2981InvalidTokenRoyaltyReceiver",
      "type": "error"
    },
    {
      "inputs": [
        {
          "internalType": "address",
          "name": "owner",
          "type": "address"
        }
      ],
      "name": "OwnableInvalidOwner",
      "type": "error"
    },
    {
      "inputs": [
        {
          "internalType": "address",
          "name": "account",
          "type": "address"
        }
      ],
      "name": "OwnableUnauthorizedAccount",
      "type": "error"
    },
    {
      "anonymous": false,
      "inputs": [
        {
          "indexed": true,
          "internalType": "address",
          "name": "account",
          "type": "address"
        },
        {
          "indexed": true,
          "internalType": "address",
          "name": "operator",
          "type": "address"
        },
        {
          "indexed": false,
          "internalType": "bool",
          "name": "approved",
          "type": "bool"
        }
      ],
      "name": "ApprovalForAll",
      "type": "event"
    },
    {
      "anonymous": false,
      "inputs": [
        {
          "indexed": true,
          "internalType": "uint256",
          "name": "eventId",
          "type": "uint256"
        },
        {
          "indexed": false,
          "internalType": "uint256",
          "name": "maxSupply",
          "type": "uint256"
        },
        {
          "indexed": false,
          "internalType": "uint256",
          "name": "eventTimestamp",
          "type": "uint256"
        }
      ],
      "name": "EventCreated",
      "type": "event"
    },
    {
      "anonymous": false,
      "inputs": [
        {
          "indexed": true,
          "internalType": "address",
          "name": "previousOwner",
          "type": "address"
        },
        {
          "indexed": true,
          "internalType": "address",
          "name": "newOwner",
          "type": "address"
        }
      ],
      "name": "OwnershipTransferred",
      "type": "event"
    },
    {
      "anonymous": false,
      "inputs": [
        {
          "indexed": true,
          "internalType": "uint256",
          "name": "eventId",
          "type": "uint256"
        },
        {
          "indexed": true,
          "internalType": "address",
          "name": "holder",
          "type": "address"
        },
        {
          "indexed": false,
          "internalType": "string",
          "name": "perkName",
          "type": "string"
        },
        {
          "indexed": false,
          "internalType": "uint256",
          "name": "quantity",
          "type": "uint256"
        }
      ],
      "name": "PerkConsumed",
      "type": "event"
    },
    {
      "anonymous": false,
      "inputs": [
        {
          "indexed": true,
          "internalType": "uint256",
          "name": "eventId",
          "type": "uint256"
        },
        {
          "indexed": false,
          "internalType": "address",
          "name": "recipient",
          "type": "address"
        },
        {
          "indexed": false,
          "internalType": "uint96",
          "name": "royaltyBps",
          "type": "uint96"
        }
      ],
      "name": "RoyaltyConfigured",
      "type": "event"
    },
    {
      "anonymous": false,
      "inputs": [
        {
          "indexed": true,
          "internalType": "uint256",
          "name": "eventId",
          "type": "uint256"
        },
        {
          "indexed": true,
          "internalType": "uint256",
          "name": "tokenId",
          "type": "uint256"
        },
        {
          "indexed": false,
          "internalType": "string",
          "name": "section",
          "type": "string"
        },
        {
          "indexed": false,
          "internalType": "string",
          "name": "row",
          "type": "string"
        },
        {
          "indexed": false,
          "internalType": "string",
          "name": "seat",
          "type": "string"
        }
      ],
      "name": "SeatAssigned",
      "type": "event"
    },
    {
      "anonymous": false,
      "inputs": [
        {
          "indexed": true,
          "internalType": "uint256",
          "name": "eventId",
          "type": "uint256"
        },
        {
          "indexed": true,
          "internalType": "uint256",
          "name": "tokenId",
          "type": "uint256"
        },
        {
          "indexed": true,
          "internalType": "address",
          "name": "recipient",
          "type": "address"
        },
        {
          "indexed": false,
          "internalType": "uint256",
          "name": "tierId",
          "type": "uint256"
        }
      ],
      "name": "TicketMinted",
      "type": "event"
    },
    {
      "anonymous": false,
      "inputs": [
        {
          "indexed": true,
          "internalType": "uint256",
          "name": "eventId",
          "type": "uint256"
        },
        {
          "indexed": true,
          "internalType": "uint256",
          "name": "tokenId",
          "type": "uint256"
        },
        {
          "indexed": false,
          "internalType": "enum UnchainedTickets.TicketState",
          "name": "newState",
          "type": "uint8"
        }
      ],
      "name": "TicketTransformed",
      "type": "event"
    },
    {
      "anonymous": false,
      "inputs": [
        {
          "indexed": true,
          "internalType": "uint256",
          "name": "eventId",
          "type": "uint256"
        },
        {
          "indexed": true,
          "internalType": "address",
          "name": "owner",
          "type": "address"
        }
      ],
      "name": "TicketUsed",
      "type": "event"
    },
    {
      "anonymous": false,
      "inputs": [
        {
          "indexed": true,
          "internalType": "uint256",
          "name": "eventId",
          "type": "uint256"
        },
        {
          "indexed": true,
          "internalType": "uint256",
          "name": "tierId",
          "type": "uint256"
        },
        {
          "indexed": false,
          "internalType": "string",
          "name": "tierName",
          "type": "string"
        }
      ],
      "name": "TierCreated",
      "type": "event"
    },
    {
      "anonymous": false,
      "inputs": [
        {
          "indexed": true,
          "internalType": "address",
          "name": "operator",
          "type": "address"
        },
        {
          "indexed": true,
          "internalType": "address",
          "name": "from",
          "type": "address"
        },
        {
          "indexed": true,
          "internalType": "address",
          "name": "to",
          "type": "address"
        },
        {
          "indexed": false,
          "internalType": "uint256[]",
          "name": "ids",
          "type": "uint256[]"
        },
        {
          "indexed": false,
          "internalType": "uint256[]",
          "name": "values",
          "type": "uint256[]"
        }
      ],
      "name": "TransferBatch",
      "type": "event"
    },
    {
      "anonymous": false,
      "inputs": [
        {
          "indexed": true,
          "internalType": "address",
          "name": "operator",
          "type": "address"
        },
        {
          "indexed": true,
          "internalType": "address",
          "name": "from",
          "type": "address"
        },
        {
          "indexed": true,
          "internalType": "address",
          "name": "to",
          "type": "address"
        },
        {
          "indexed": false,
          "internalType": "uint256",
          "name": "id",
          "type": "uint256"
        },
        {
          "indexed": false,
          "internalType": "uint256",
          "name": "value",
          "type": "uint256"
        }
      ],
      "name": "TransferSingle",
      "type": "event"
    },
    {
      "anonymous": false,
      "inputs": [
        {
          "indexed": false,
          "internalType": "string",
          "name": "value",
          "type": "string"
        },
        {
          "indexed": true,
          "internalType": "uint256",
          "name": "id",
          "type": "uint256"
        }
      ],
      "name": "URI",
      "type": "event"
    },
    {
      "inputs": [
        {
          "internalType": "address",
          "name": "account",
          "type": "address"
        },
        {
          "internalType": "uint256",
          "name": "id",
          "type": "uint256"
        }
      ],
      "name": "balanceOf",
      "outputs": [
        {
          "internalType": "uint256",
          "name": "",
          "type": "uint256"
        }
      ],
      "stateMutability": "view",
      "type": "function"
    },
    {
      "inputs": [
        {
          "internalType": "address[]",
          "name": "accounts",
          "type": "address[]"
        },
        {
          "internalType": "uint256[]",
          "name": "ids",
          "type": "uint256[]"
        }
      ],
      "name": "balanceOfBatch",
      "outputs": [
        {
          "internalType": "uint256[]",
          "name": "",
          "type": "uint256[]"
        }
      ],
      "stateMutability": "view",
      "type": "function"
    },
    {
      "inputs": [
        {
          "internalType": "uint256",
          "name": "eventId",
          "type": "uint256"
        },
        {
          "internalType": "uint256[]",
          "name": "tokenIds",
          "type": "uint256[]"
        }
      ],
      "name": "batchTransformToSouvenirs",
      "outputs": [],
      "stateMutability": "nonpayable",
      "type": "function"
    },
    {
      "inputs": [
        {
          "internalType": "address",
          "name": "account",
          "type": "address"
        },
        {
          "internalType": "uint256",
          "name": "id",
          "type": "uint256"
        },
        {
          "internalType": "uint256",
          "name": "value",
          "type": "uint256"
        }
      ],
      "name": "burn",
      "outputs": [],
      "stateMutability": "nonpayable",
      "type": "function"
    },
    {
      "inputs": [
        {
          "internalType": "address",
          "name": "account",
          "type": "address"
        },
        {
          "internalType": "uint256[]",
          "name": "ids",
          "type": "uint256[]"
        },
        {
          "internalType": "uint256[]",
          "name": "values",
          "type": "uint256[]"
        }
      ],
      "name": "burnBatch",
      "outputs": [],
      "stateMutability": "nonpayable",
      "type": "function"
    },
    {
      "inputs": [
        {
          "internalType": "uint256",
          "name": "eventId",
          "type": "uint256"
        },
        {
          "internalType": "uint256",
          "name": "tokenId",
          "type": "uint256"
        },
        {
          "internalType": "string",
          "name": "area",
          "type": "string"
        }
      ],
      "name": "canAccessArea",
      "outputs": [
        {
          "internalType": "bool",
          "name": "",
          "type": "bool"
        }
      ],
      "stateMutability": "view",
      "type": "function"
    },
    {
      "inputs": [
        {
          "internalType": "uint256",
          "name": "eventId",
          "type": "uint256"
        },
        {
          "internalType": "address",
          "name": "ticketHolder",
          "type": "address"
        },
        {
          "internalType": "string",
          "name": "perkName",
          "type": "string"
        },
        {
          "internalType": "uint256",
          "name": "quantity",
          "type": "uint256"
        }
      ],
      "name": "consumePerk",
      "outputs": [],
      "stateMutability": "nonpayable",
      "type": "function"
    },
    {
      "inputs": [
        {
          "internalType": "uint256",
          "name": "eventId",
          "type": "uint256"
        },
        {
          "internalType": "uint256",
          "name": "maxSupply",
          "type": "uint256"
        },
        {
          "internalType": "uint256",
          "name": "eventTimestamp",
          "type": "uint256"
        },
        {
          "internalType": "uint256",
          "name": "eventEndTimestamp",
          "type": "uint256"
        },
        {
          "internalType": "string",
          "name": "metadataURI",
          "type": "string"
        },
        {
          "internalType": "string",
          "name": "souvenirMetadataURI",
          "type": "string"
        },
        {
          "internalType": "address",
          "name": "royaltyRecipient",
          "type": "address"
        },
        {
          "internalType": "uint96",
          "name": "royaltyBps",
          "type": "uint96"
        }
      ],
      "name": "createEvent",
      "outputs": [],
      "stateMutability": "nonpayable",
      "type": "function"
    },
    {
      "inputs": [
        {
          "internalType": "uint256",
          "name": "eventId",
          "type": "uint256"
        },
        {
          "internalType": "string",
          "name": "tierName",
          "type": "string"
        },
        {
          "internalType": "enum UnchainedTickets.TicketTier",
          "name": "tier",
          "type": "uint8"
        },
        {
          "internalType": "uint256",
          "name": "maxSupply",
          "type": "uint256"
        },
        {
          "internalType": "uint256",
          "name": "priceCents",
          "type": "uint256"
        },
        {
          "internalType": "string[]",
          "name": "accessAreas",
          "type": "string[]"
        },
        {
          "internalType": "string[]",
          "name": "includedPerks",
          "type": "string[]"
        }
      ],
      "name": "createTier",
      "outputs": [],
      "stateMutability": "nonpayable",
      "type": "function"
    },
    {
      "inputs": [
        {
          "internalType": "uint256",
          "name": "",
          "type": "uint256"
        }
      ],
      "name": "eventActiveSupply",
      "outputs": [
        {
          "internalType": "uint256",
          "name": "",
          "type": "uint256"
        }
      ],
      "stateMutability": "view",
      "type": "function"
    },
    {
      "inputs": [
        {
          "internalType": "uint256",
          "name": "",
          "type": "uint256"
        }
      ],
      "name": "eventTierCount",
      "outputs": [
        {
          "internalType": "uint256",
          "name": "",
          "type": "uint256"
        }
      ],
      "stateMutability": "view",
      "type": "function"
    },
    {
      "inputs": [
        {
          "internalType": "uint256",
          "name": "",
          "type": "uint256"
        },
        {
          "internalType": "uint256",
          "name": "",
          "type": "uint256"
        }
      ],
      "name": "eventTiers",
      "outputs": [
        {
          "internalType": "enum UnchainedTickets.TicketTier",
          "name": "tier",
          "type": "uint8"
        },
        {
          "internalType": "string",
          "name": "tierName",
          "type": "string"
        },
        {
          "internalType": "uint256",
          "name": "maxSupply",
          "type": "uint256"
        },
        {
          "internalType": "uint256",
          "name": "priceCents",
          "type": "uint256"
        }
      ],
      "stateMutability": "view",
      "type": "function"
    },
    {
      "inputs": [
        {
          "internalType": "uint256",
          "name": "",
          "type": "uint256"
        }
      ],
      "name": "eventTokenCounter",
      "outputs": [
        {
          "internalType": "uint256",
          "name": "",
          "type": "uint256"
        }
      ],
      "stateMutability": "view",
      "type": "function"
    },
    {
      "inputs": [
        {
          "internalType": "uint256",
          "name": "",
          "type": "uint256"
        }
      ],
      "name": "events",
      "outputs": [
        {
          "internalType": "uint256",
          "name": "maxSupply",
          "type": "uint256"
        },
        {
          "internalType": "uint256",
          "name": "eventTimestamp",
          "type": "uint256"
        },
        {
          "internalType": "uint256",
          "name": "eventEndTimestamp",
          "type": "uint256"
        },
        {
          "internalType": "bool",
          "name": "transferable",
          "type": "bool"
        },
        {
          "internalType": "bool",
          "name": "active",
          "type": "bool"
        },
        {
          "internalType": "string",
          "name": "metadataURI",
          "type": "string"
        },
        {
          "internalType": "string",
          "name": "souvenirMetadataURI",
          "type": "string"
        },
        {
          "internalType": "uint96",
          "name": "royaltyBps",
          "type": "uint96"
        },
        {
          "internalType": "address",
          "name": "royaltyRecipient",
          "type": "address"
        }
      ],
      "stateMutability": "view",
      "type": "function"
    },
    {
      "inputs": [
        {
          "internalType": "uint256",
          "name": "tokenId",
          "type": "uint256"
        }
      ],
      "name": "exists",
      "outputs": [
        {
          "internalType": "bool",
          "name": "",
          "type": "bool"
        }
      ],
      "stateMutability": "view",
      "type": "function"
    },
    {
      "inputs": [
        {
          "internalType": "uint256",
          "name": "eventId",
          "type": "uint256"
        },
        {
          "internalType": "address",
          "name": "holder",
          "type": "address"
        },
        {
          "internalType": "string",
          "name": "perkName",
          "type": "string"
        }
      ],
      "name": "getPerkStatus",
      "outputs": [
        {
          "internalType": "uint256",
          "name": "maxQuantity",
          "type": "uint256"
        },
        {
          "internalType": "uint256",
          "name": "consumed",
          "type": "uint256"
        }
      ],
      "stateMutability": "view",
      "type": "function"
    },
    {
      "inputs": [
        {
          "internalType": "uint256",
          "name": "eventId",
          "type": "uint256"
        },
        {
          "internalType": "uint256",
          "name": "tokenId",
          "type": "uint256"
        }
      ],
      "name": "getSeatAssignment",
      "outputs": [
        {
          "internalType": "string",
          "name": "section",
          "type": "string"
        },
        {
          "internalType": "string",
          "name": "row",
          "type": "string"
        },
        {
          "internalType": "string",
          "name": "seat",
          "type": "string"
        }
      ],
      "stateMutability": "view",
      "type": "function"
    },
    {
      "inputs": [
        {
          "internalType": "uint256",
          "name": "tokenId",
          "type": "uint256"
        }
      ],
      "name": "getTicketState",
      "outputs": [
        {
          "internalType": "enum UnchainedTickets.TicketState",
          "name": "",
          "type": "uint8"
        }
      ],
      "stateMutability": "view",
      "type": "function"
    },
    {
      "inputs": [
        {
          "internalType": "uint256",
          "name": "eventId",
          "type": "uint256"
        },
        {
          "internalType": "uint256",
          "name": "tierId",
          "type": "uint256"
        }
      ],
      "name": "getTierInfo",
      "outputs": [
        {
          "components": [
            {
              "internalType": "enum UnchainedTickets.TicketTier",
              "name": "tier",
              "type": "uint8"
            },
            {
              "internalType": "string",
              "name": "tierName",
              "type": "string"
            },
            {
              "internalType": "uint256",
              "name": "maxSupply",
              "type": "uint256"
            },
            {
              "internalType": "uint256",
              "name": "priceCents",
              "type": "uint256"
            },
            {
              "internalType": "string[]",
              "name": "accessAreas",
              "type": "string[]"
            },
            {
              "internalType": "string[]",
              "name": "includedPerks",
              "type": "string[]"
            }
          ],
          "internalType": "struct UnchainedTickets.TierConfig",
          "name": "",
          "type": "tuple"
        }
      ],
      "stateMutability": "view",
      "type": "function"
    },
    {
      "inputs": [
        {
          "internalType": "address",
          "name": "account",
          "type": "address"
        },
        {
          "internalType": "address",
          "name": "operator",
          "type": "address"
        }
      ],
      "name": "isApprovedForAll",
      "outputs": [
        {
          "internalType": "bool",
          "name": "",
          "type": "bool"
        }
      ],
      "stateMutability": "view",
      "type": "function"
    },
    {
      "inputs": [
        {
          "internalType": "uint256",
          "name": "eventId",
          "type": "uint256"
        },
        {
          "internalType": "uint256",
          "name": "tierId",
          "type": "uint256"
        },
        {
          "internalType": "address",
          "name": "recipient",
          "type": "address"
        },
        {
          "internalType": "string",
          "name": "section",
          "type": "string"
        },
        {
          "internalType": "string",
          "name": "row",
          "type": "string"
        },
        {
          "internalType": "string",
          "name": "seat",
          "type": "string"
        }
      ],
      "name": "mintTicketWithTier",
      "outputs": [
        {
          "internalType": "uint256",
          "name": "",
          "type": "uint256"
        }
      ],
      "stateMutability": "nonpayable",
      "type": "function"
    },
    {
      "inputs": [],
      "name": "name",
      "outputs": [
        {
          "internalType": "string",
          "name": "",
          "type": "string"
        }
      ],
      "stateMutability": "view",
      "type": "function"
    },
    {
      "inputs": [],
      "name": "owner",
      "outputs": [
        {
          "internalType": "address",
          "name": "",
          "type": "address"
        }
      ],
      "stateMutability": "view",
      "type": "function"
    },
    {
      "inputs": [
        {
          "internalType": "uint256",
          "name": "",
          "type": "uint256"
        },
        {
          "internalType": "address",
          "name": "",
          "type": "address"
        },
        {
          "internalType": "string",
          "name": "",
          "type": "string"
        }
      ],
      "name": "perkTracking",
      "outputs": [
        {
          "internalType": "string",
          "name": "perkName",
          "type": "string"
        },
        {
          "internalType": "uint256",
          "name": "maxQuantity",
          "type": "uint256"
        },
        {
          "internalType": "uint256",
          "name": "consumed",
          "type": "uint256"
        }
      ],
      "stateMutability": "view",
      "type": "function"
    },
    {
      "inputs": [],
      "name": "renounceOwnership",
      "outputs": [],
      "stateMutability": "nonpayable",
      "type": "function"
    },
    {
      "inputs": [
        {
          "internalType": "uint256",
          "name": "tokenId",
          "type": "uint256"
        },
        {
          "internalType": "uint256",
          "name": "salePrice",
          "type": "uint256"
        }
      ],
      "name": "royaltyInfo",
      "outputs": [
        {
          "internalType": "address",
          "name": "receiver",
          "type": "address"
        },
        {
          "internalType": "uint256",
          "name": "amount",
          "type": "uint256"
        }
      ],
      "stateMutability": "view",
      "type": "function"
    },
    {
      "inputs": [
        {
          "internalType": "address",
          "name": "from",
          "type": "address"
        },
        {
          "internalType": "address",
          "name": "to",
          "type": "address"
        },
        {
          "internalType": "uint256[]",
          "name": "ids",
          "type": "uint256[]"
        },
        {
          "internalType": "uint256[]",
          "name": "values",
          "type": "uint256[]"
        },
        {
          "internalType": "bytes",
          "name": "data",
          "type": "bytes"
        }
      ],
      "name": "safeBatchTransferFrom",
      "outputs": [],
      "stateMutability": "nonpayable",
      "type": "function"
    },
    {
      "inputs": [
        {
          "internalType": "address",
          "name": "from",
          "type": "address"
        },
        {
          "internalType": "address",
          "name": "to",
          "type": "address"
        },
        {
          "internalType": "uint256",
          "name": "id",
          "type": "uint256"
        },
        {
          "internalType": "uint256",
          "name": "value",
          "type": "uint256"
        },
        {
          "internalType": "bytes",
          "name": "data",
          "type": "bytes"
        }
      ],
      "name": "safeTransferFrom",
      "outputs": [],
      "stateMutability": "nonpayable",
      "type": "function"
    },
    {
      "inputs": [
        {
          "internalType": "uint256",
          "name": "",
          "type": "uint256"
        },
        {
          "internalType": "uint256",
          "name": "",
          "type": "uint256"
        }
      ],
      "name": "seatAssignments",
      "outputs": [
        {
          "internalType": "string",
          "name": "section",
          "type": "string"
        },
        {
          "internalType": "string",
          "name": "row",
          "type": "string"
        },
        {
          "internalType": "string",
          "name": "seat",
          "type": "string"
        },
        {
          "internalType": "bool",
          "name": "assigned",
          "type": "bool"
        }
      ],
      "stateMutability": "view",
      "type": "function"
    },
    {
      "inputs": [
        {
          "internalType": "address",
          "name": "operator",
          "type": "address"
        },
        {
          "internalType": "bool",
          "name": "approved",
          "type": "bool"
        }
      ],
      "name": "setApprovalForAll",
      "outputs": [],
      "stateMutability": "nonpayable",
      "type": "function"
    },
    {
      "inputs": [
        {
          "internalType": "string",
          "name": "baseURI_",
          "type": "string"
        }
      ],
      "name": "setBaseURI",
      "outputs": [],
      "stateMutability": "nonpayable",
      "type": "function"
    },
    {
      "inputs": [
        {
          "internalType": "bytes4",
          "name": "interfaceId",
          "type": "bytes4"
        }
      ],
      "name": "supportsInterface",
      "outputs": [
        {
          "internalType": "bool",
          "name": "",
          "type": "bool"
        }
      ],
      "stateMutability": "view",
      "type": "function"
    },
    {
      "inputs": [],
      "name": "symbol",
      "outputs": [
        {
          "internalType": "string",
          "name": "",
          "type": "string"
        }
      ],
      "stateMutability": "view",
      "type": "function"
    },
    {
      "inputs": [
        {
          "internalType": "uint256",
          "name": "",
          "type": "uint256"
        }
      ],
      "name": "ticketStates",
      "outputs": [
        {
          "internalType": "enum UnchainedTickets.TicketState",
          "name": "",
          "type": "uint8"
        }
      ],
      "stateMutability": "view",
      "type": "function"
    },
    {
      "inputs": [
        {
          "internalType": "uint256",
          "name": "",
          "type": "uint256"
        }
      ],
      "name": "tokenToEvent",
      "outputs": [
        {
          "internalType": "uint256",
          "name": "",
          "type": "uint256"
        }
      ],
      "stateMutability": "view",
      "type": "function"
    },
    {
      "inputs": [
        {
          "internalType": "uint256",
          "name": "",
          "type": "uint256"
        }
      ],
      "name": "tokenToTier",
      "outputs": [
        {
          "internalType": "uint256",
          "name": "",
          "type": "uint256"
        }
      ],
      "stateMutability": "view",
      "type": "function"
    },
    {
      "inputs": [],
      "name": "totalSupply",
      "outputs": [
        {
          "internalType": "uint256",
          "name": "",
          "type": "uint256"
        }
      ],
      "stateMutability": "view",
      "type": "function"
    },
    {
      "inputs": [
        {
          "internalType": "uint256",
          "name": "id",
          "type": "uint256"
        }
      ],
      "name": "totalSupply",
      "outputs": [
        {
          "internalType": "uint256",
          "name": "",
          "type": "uint256"
        }
      ],
      "stateMutability": "view",
      "type": "function"
    },
    {
      "inputs": [
        {
          "internalType": "address",
          "name": "newOwner",
          "type": "address"
        }
      ],
      "name": "transferOwnership",
      "outputs": [],
      "stateMutability": "nonpayable",
      "type": "function"
    },
    {
      "inputs": [
        {
          "internalType": "uint256",
          "name": "eventId",
          "type": "uint256"
        },
        {
          "internalType": "address",
          "name": "recipient",
          "type": "address"
        },
        {
          "internalType": "uint96",
          "name": "royaltyBps",
          "type": "uint96"
        }
      ],
      "name": "updateRoyalty",
      "outputs": [],
      "stateMutability": "nonpayable",
      "type": "function"
    },
    {
      "inputs": [
        {
          "internalType": "uint256",
          "name": "tokenId",
          "type": "uint256"
        }
      ],
      "name": "uri",
      "outputs": [
        {
          "internalType": "string",
          "name": "",
          "type": "string"
        }
      ],
      "stateMutability": "view",
      "type": "function"
    },
    {
      "inputs": [
        {
          "internalType": "uint256",
          "name": "tokenId",
          "type": "uint256"
        },
        {
          "internalType": "address",
          "name": "ticketHolder",
          "type": "address"
        },
        {
          "internalType": "bool",
          "name": "transformToSouvenir",
          "type": "bool"
        }
      ],
      "name": "useTicket",
      "outputs": [],
      "stateMutability": "nonpayable",
      "type": "function"
    },
    {
      "inputs": [
        {
          "internalType": "uint256",
          "name": "",
          "type": "uint256"
        }
      ],
      "name": "usedTokens",
      "outputs": [
        {
          "internalType": "bool",
          "name": "",
          "type": "bool"
        }
      ],
      "stateMutability": "view",
      "type": "function"
    }
  ],
  "bytecode": "0x60c06040526011608090815270556e636861696e6564205469636b65747360781b60a05260089062000032908262000205565b506040805180820190915260048152630aa9c86960e31b60208201526009906200005d908262000205565b503480156200006b57600080fd5b5060405162005325380380620053258339810160408190526200008e91620002d1565b6040805160208101909152600081523390620000aa81620000fc565b506001600160a01b038116620000da57604051631e4fbdf760e01b81526000600482015260240160405180910390fd5b620000e5816200010e565b50600a620000f4828262000205565b5050620003a6565b60026200010a828262000205565b5050565b600380546001600160a01b038381166001600160a01b0319831681179093556040519116919082907f8be0079c531659141344cd1fd0a4f28419497f9722a3daafe3b4186f6b6457e090600090a35050565b634e487b7160e01b600052604160045260246000fd5b600181811c908216806200018b57607f821691505b602082108103620001ac57634e487b7160e01b600052602260045260246000fd5b50919050565b601f8211156200020057600081815260208120601f850160051c81016020861015620001db5750805b601f850160051c820191505b81811015620001fc57828155600101620001e7565b5050505b505050565b81516001600160401b0381111562000221576200022162000160565b620002398162000232845462000176565b84620001b2565b602080601f831160018114620002715760008415620002585750858301515b600019600386901b1c1916600185901b178555620001fc565b600085815260208120601f198616915b82811015620002a25788860151825594840194600190910190840162000281565b5085821015620002c15787850151600019600388901b60f8161c191681555b5050505050600190811b01905550565b60006020808385031215620002e557600080fd5b82516001600160401b0380821115620002fd57600080fd5b818501915085601f8301126200031257600080fd5b81518181111562000327576200032762000160565b604051601f8201601f19908116603f0116810190838211818310171562000352576200035262000160565b8160405282815288868487010111156200036b57600080fd5b600093505b828410156200038f578484018601518185018701529285019262000370565b600086848301015280965050505050505092915050565b614f6f80620003b66000396000f3fe608060405234801561001057600080fd5b50600436106102685760003560e01c8063715018a611610151578063bd85b039116100c3578063e985e9c511610087578063e985e9c514610668578063edb2b2141461067b578063f242432a1461068e578063f2fde38b146106a1578063f5298aca146106b4578063fe6ad9d5146106c757600080fd5b8063bd85b039146105d3578063c0fa00ae146105f3578063c33c66fa14610613578063cc9d707114610635578063e41394931461065557600080fd5b80638da5cb5b116101155780638da5cb5b1461055457806395d89b411461056f5780639d9fa93814610577578063a22cb4651461058a578063aa7c4df51461059d578063bc2336e2146105b057600080fd5b8063715018a6146104e057806373f20eb6146104e857806385af5762146104fb578063863272d51461050e5780638920dd141461053157600080fd5b8063268bad9b116101ea57806347fb430f116101ae57806347fb430f146104355780634e1273f4146104485780634f558e791461046857806355f804b31461048a5780636482db3f1461049d5780636b20c454146104cd57600080fd5b8063268bad9b146103995780632a55205a146103bb5780632eb2c2d6146103ed57806334bcadb614610402578063417ac8691461042257600080fd5b80630f7ee879116102315780630f7ee87914610306578063103f770f14610329578063166cc9441461035157806318160ddd146103715780632432ada51461037957600080fd5b8062fdd58e1461026d57806301ffc9a71461029357806306fdde03146102b65780630b791430146102cb5780630e89341c146102f3575b600080fd5b61028061027b366004613f04565b6106e7565b6040519081526020015b60405180910390f35b6102a66102a1366004613f44565b61070f565b604051901515815260200161028a565b6102be61071a565b60405161028a9190613fb1565b6102de6102d9366004613fc4565b6107a8565b60405161028a99989796959493929190613fdd565b6102be610301366004613fc4565b610920565b6102a6610314366004613fc4565b600c6020526000908152604090205460ff1681565b61033c61033736600461410d565b610b85565b6040805192835260208301919091520161028a565b61028061035f366004613fc4565b600f6020526000908152604090205481565b600554610280565b610280610387366004613fc4565b60156020526000908152604090205481565b6103ac6103a7366004614163565b610c91565b60405161028a93929190614185565b6103ce6103c9366004614163565b610eef565b604080516001600160a01b03909316835260208301919091520161028a565b6104006103fb366004614256565b610f74565b005b610280610410366004613fc4565b60126020526000908152604090205481565b610400610430366004614316565b610fdb565b610280610443366004614352565b611103565b61045b6104563660046143fc565b61179b565b60405161028a91906144f6565b6102a6610476366004613fc4565b600090815260046020526040902054151590565b610400610498366004614509565b61186f565b6104c06104ab366004613fc4565b6000908152600d602052604090205460ff1690565b60405161028a919061455b565b6104006104db366004614575565b611887565b6104006118eb565b6104006104f63660046145de565b6118ff565b61040061050936600461463c565b611a4f565b6104c061051c366004613fc4565b600d6020526000908152604090205460ff1681565b61054461053f366004614163565b611dd8565b60405161028a94939291906146fb565b6003546040516001600160a01b03909116815260200161028a565b6102be611e98565b61040061058536600461472e565b611ea5565b61040061059836600461477a565b611fe2565b6102a66105ab3660046147ad565b611fed565b6105c36105be366004614163565b6123ba565b60405161028a94939291906147e6565b6102806105e1366004613fc4565b60009081526004602052604090205490565b610280610601366004613fc4565b60146020526000908152604090205481565b61062661062136600461410d565b612588565b60405161028a93929190614833565b610280610643366004613fc4565b60136020526000908152604090205481565b610400610663366004614858565b612658565b6102a661067636600461488b565b612924565b610400610689366004614934565b612952565b61040061069c3660046149f1565b612ad6565b6104006106af366004614a55565b612ddf565b6104006106c2366004614a70565b612e1d565b6106da6106d5366004614163565b612e53565b60405161028a9190614af8565b6000818152602081815260408083206001600160a01b03861684529091529020545b92915050565b600061070982613189565b6008805461072790614b7e565b80601f016020809104026020016040519081016040528092919081815260200182805461075390614b7e565b80156107a05780601f10610775576101008083540402835291602001916107a0565b820191906000526020600020905b81548152906001019060200180831161078357829003601f168201915b505050505081565b600b602052600090815260409020805460018201546002830154600384015460048501805494959394929360ff8084169461010090940416929091906107ed90614b7e565b80601f016020809104026020016040519081016040528092919081815260200182805461081990614b7e565b80156108665780601f1061083b57610100808354040283529160200191610866565b820191906000526020600020905b81548152906001019060200180831161084957829003601f168201915b50505050509080600501805461087b90614b7e565b80601f01602080910402602001604051908101604052809291908181526020018280546108a790614b7e565b80156108f45780601f106108c9576101008083540402835291602001916108f4565b820191906000526020600020905b8154815290600101906020018083116108d757829003601f168201915b505050600690930154919250506001600160601b038116906001600160a01b03600160601b9091041689565b60606000610931620f424084614bce565b6000818152600b60205260409020549091506109685760405162461bcd60e51b815260040161095f90614bf0565b60405180910390fd5b6000818152600b6020908152604080832081516101208101835281548152600182015493810193909352600281015491830191909152600381015460ff80821615156060850152610100909104161515608083015260048101805460a0840191906109d290614b7e565b80601f01602080910402602001604051908101604052809291908181526020018280546109fe90614b7e565b8015610a4b5780601f10610a2057610100808354040283529160200191610a4b565b820191906000526020600020905b815481529060010190602001808311610a2e57829003601f168201915b50505050508152602001600582018054610a6490614b7e565b80601f0160208091040260200160405190810160405280929190818152602001828054610a9090614b7e565b8015610add5780601f10610ab257610100808354040283529160200191610add565b820191906000526020600020905b815481529060010190602001808311610ac057829003601f168201915b5050509183525050600691909101546001600160601b0381166020830152600160601b90046001600160a01b031660409091015260c08101515190915015801590610b2b5750806040015142115b15610b3b5760c001519392505050565b60a08101515115610b515760a001519392505050565b600a610b5c856131ae565b604051602001610b6d929190614c1e565b60405160208183030381529060405292505050919050565b60008381526011602090815260408083206001600160a01b0386168452909152808220905182918291610bb9908690614ca5565b9081526020016040518091039020604051806060016040529081600082018054610be290614b7e565b80601f0160208091040260200160405190810160405280929190818152602001828054610c0e90614b7e565b8015610c5b5780601f10610c3057610100808354040283529160200191610c5b565b820191906000526020600020905b815481529060010190602001808311610c3e57829003601f168201915b50505050508152602001600182015481526020016002820154815250509050806020015181604001519250925050935093915050565b60608060606000601060008781526020019081526020016000206000868152602001908152602001600020604051806080016040529081600082018054610cd790614b7e565b80601f0160208091040260200160405190810160405280929190818152602001828054610d0390614b7e565b8015610d505780601f10610d2557610100808354040283529160200191610d50565b820191906000526020600020905b815481529060010190602001808311610d3357829003601f168201915b50505050508152602001600182018054610d6990614b7e565b80601f0160208091040260200160405190810160405280929190818152602001828054610d9590614b7e565b8015610de25780601f10610db757610100808354040283529160200191610de2565b820191906000526020600020905b815481529060010190602001808311610dc557829003601f168201915b50505050508152602001600282018054610dfb90614b7e565b80601f0160208091040260200160405190810160405280929190818152602001828054610e2790614b7e565b8015610e745780601f10610e4957610100808354040283529160200191610e74565b820191906000526020600020905b815481529060010190602001808311610e5757829003601f168201915b50505091835250506003919091015460ff1615156020909101526060810151909150610ed55760405162461bcd60e51b815260206004820152601060248201526f139bc81cd9585d08185cdcda59db995960821b604482015260640161095f565b805160208201516040909201519097919650945092505050565b600082815260076020526040812080548291906001600160a01b03811690600160a01b90046001600160601b031681610f435750506006546001600160a01b03811690600160a01b90046001600160601b03165b6000612710610f5b6001600160601b03841689614cc1565b610f659190614bce565b92989297509195505050505050565b336001600160a01b0386168114801590610f955750610f938682612924565b155b15610fc65760405163711bec9160e11b81526001600160a01b0380831660048301528716602482015260440161095f565b610fd38686868686613240565b505050505050565b610fe36132a0565b6000838152600b602052604090205461100e5760405162461bcd60e51b815260040161095f90614bf0565b612710816001600160601b031611156110695760405162461bcd60e51b815260206004820152601a60248201527f526f79616c74792063616e6e6f74206578636565642031303025000000000000604482015260640161095f565b6000838152600b602052604090206001600160601b0382166001600160a01b038416600160601b026bffffffffffffffffffffffff1916176006909101556110b28383836132cd565b604080516001600160a01b03841681526001600160601b038316602082015284917fbefc93e7daa33253e132c907f20544f15e5e331b7f4e917cabee1d6097a1f1f8910160405180910390a2505050565b600061110d6132a0565b6000878152600b6020526040902060030154610100900460ff166111695760405162461bcd60e51b81526020600482015260136024820152724576656e74206973206e6f742061637469766560681b604482015260640161095f565b6000878152600f602052604090205486106111b55760405162461bcd60e51b815260206004820152600c60248201526b24b73b30b634b2103a34b2b960a11b604482015260640161095f565b6001600160a01b03851661120b5760405162461bcd60e51b815260206004820152601960248201527f496e76616c696420726563697069656e74206164647265737300000000000000604482015260640161095f565b6000878152600e60209081526040808320898452909152808220815160c081019092528054829060ff16600481111561124657611246614545565b600481111561125757611257614545565b815260200160018201805461126b90614b7e565b80601f016020809104026020016040519081016040528092919081815260200182805461129790614b7e565b80156112e45780601f106112b9576101008083540402835291602001916112e4565b820191906000526020600020905b8154815290600101906020018083116112c757829003601f168201915b50505050508152602001600282015481526020016003820154815260200160048201805480602002602001604051908101604052809291908181526020016000905b828210156113d257838290600052602060002001805461134590614b7e565b80601f016020809104026020016040519081016040528092919081815260200182805461137190614b7e565b80156113be5780601f10611393576101008083540402835291602001916113be565b820191906000526020600020905b8154815290600101906020018083116113a157829003601f168201915b505050505081526020019060010190611326565b50505050815260200160058201805480602002602001604051908101604052809291908181526020016000905b828210156114ab57838290600052602060002001805461141e90614b7e565b80601f016020809104026020016040519081016040528092919081815260200182805461144a90614b7e565b80156114975780601f1061146c57610100808354040283529160200191611497565b820191906000526020600020905b81548152906001019060200180831161147a57829003601f168201915b5050505050815260200190600101906113ff565b505050915250506000898152600b6020908152604080832054601490925290912054919250906114dc906001614cd8565b111561151b5760405162461bcd60e51b815260206004820152600e60248201526d115d995b9d081cdbdb19081bdd5d60921b604482015260640161095f565b600088815260156020526040812054611537620f42408b614cc1565b6115419190614cd8565b60008a815260156020526040812080549293509061155e83614ceb565b909155505060008181526012602090815260408083208b9055601382528083208c90558051918201905290815261159b908890839060019061338f565b6000818152600d60205260409020805460ff19169055855115611685576040805160808101825287815260208082018890528183018790526001606083015260008c81526010825283812085825290915291909120815181906115fe9082614d4a565b50602082015160018201906116139082614d4a565b50604082015160028201906116289082614d4a565b50606091909101516003909101805460ff191691151591909117905560405181908a907f88257bb4915cfaf23ff1f49a4d5278601267800249071a71f74369a6f35b72b49061167c908a908a908a90614185565b60405180910390a35b60005b8260a00151518110156117495760008360a0015182815181106116ad576116ad614e09565b6020908102919091018101516040805160608101825282815260018185015260008183018190528f8152601185528281206001600160a01b038f16825290945292819020905191935090611702908490614ca5565b9081526040519081900360200190208151819061171f9082614d4a565b5060208201516001820155604090910151600290910155508061174181614ceb565b915050611688565b50866001600160a01b0316818a7f4fe0f5bb11eb6ab81c428fb83261719e5b22f84b3e1942cd491c3777504bb8518b60405161178791815260200190565b60405180910390a498975050505050505050565b606081518351146117cc5781518351604051635b05999160e01b81526004810192909252602482015260440161095f565b600083516001600160401b038111156117e7576117e7614058565b604051908082528060200260200182016040528015611810578160200160208202803683370190505b50905060005b84518110156118675760208082028601015161183a906020808402870101516106e7565b82828151811061184c5761184c614e09565b602090810291909101015261186081614ceb565b9050611816565b509392505050565b6118776132a0565b600a6118838282614d4a565b5050565b6001600160a01b03831633148015906118a757506118a58333612924565b155b156118db57335b60405163711bec9160e11b81526001600160a01b039182166004820152908416602482015260440161095f565b6118e68383836133ec565b505050565b6118f36132a0565b6118fd6000613432565b565b6119076132a0565b60008481526011602090815260408083206001600160a01b03871684529091528082209051611937908590614ca5565b9081526020016040518091039020905060008160010154116119905760405162461bcd60e51b81526020600482015260126024820152715065726b206e6f7420617661696c61626c6560701b604482015260640161095f565b80600101548282600201546119a59190614cd8565b11156119e95760405162461bcd60e51b815260206004820152601360248201527214195c9ac81b1a5b5a5d08195e18d959591959606a1b604482015260640161095f565b818160020160008282546119fd9190614cd8565b92505081905550836001600160a01b0316857f4e3e5d9908b5bd9975f87efcebca93c1b24a2b205aa71fc34300ab7bf7e16b908585604051611a40929190614e1f565b60405180910390a35050505050565b611a576132a0565b6000888152600b602052604090205415611aaa5760405162461bcd60e51b81526020600482015260146024820152734576656e7420616c72656164792065786973747360601b604482015260640161095f565b60008711611b045760405162461bcd60e51b815260206004820152602160248201527f4d617820737570706c79206d7573742062652067726561746572207468616e206044820152600360fc1b606482015260840161095f565b428611611b535760405162461bcd60e51b815260206004820152601b60248201527f4576656e74206d75737420626520696e20746865206675747572650000000000604482015260640161095f565b858511611ba25760405162461bcd60e51b815260206004820152601d60248201527f4576656e7420656e64206d757374206265206166746572207374617274000000604482015260640161095f565b612710816001600160601b03161115611bfd5760405162461bcd60e51b815260206004820152601a60248201527f526f79616c74792063616e6e6f74206578636565642031303025000000000000604482015260640161095f565b604051806101200160405280888152602001878152602001868152602001600015158152602001600115158152602001858152602001848152602001826001600160601b03168152602001836001600160a01b0316815250600b60008a815260200190815260200160002060008201518160000155602082015181600101556040820151816002015560608201518160030160006101000a81548160ff02191690831515021790555060808201518160030160016101000a81548160ff02191690831515021790555060a0820151816004019081611cdb9190614d4a565b5060c08201516005820190611cf09082614d4a565b5060e0820151610100909201516001600160a01b0316600160601b026001600160601b0392831617600690910155811615801590611d3657506001600160a01b03821615155b15611d9357611d468883836132cd565b604080516001600160a01b03841681526001600160601b038316602082015289917fbefc93e7daa33253e132c907f20544f15e5e331b7f4e917cabee1d6097a1f1f8910160405180910390a25b604080518881526020810188905289917f06168e40fac2576e22d73ab2e9efa79b4e7530dd3dd411ab7d8862d04be798a2910160405180910390a25050505050505050565b600e6020908152600092835260408084209091529082529020805460018201805460ff9092169291611e0990614b7e565b80601f0160208091040260200160405190810160405280929190818152602001828054611e3590614b7e565b8015611e825780601f10611e5757610100808354040283529160200191611e82565b820191906000526020600020905b815481529060010190602001808311611e6557829003601f168201915b5050505050908060020154908060030154905084565b6009805461072790614b7e565b611ead6132a0565b6000828152600b60205260409020600201544211611eff5760405162461bcd60e51b815260206004820152600f60248201526e115d995b9d081b9bdd08195b991959608a1b604482015260640161095f565b60005b81518110156118e6576000828281518110611f1f57611f1f614e09565b6020026020010151905083601360008381526020019081526020016000205414611f495750611fd0565b60016000828152600d602052604090205460ff166002811115611f6e57611f6e614545565b03611fce576000818152600d6020526040902080546002919060ff1916600183021790555080847ff4245df30944233e7208c51c270455d1128b5ec5c18d623367b49e7254214b9d6002604051611fc5919061455b565b60405180910390a35b505b80611fda81614ceb565b915050611f02565b611883338383613484565b60008281526004602052604081205461203f5760405162461bcd60e51b8152602060048201526014602482015273151bdad95b88191bd95cc81b9bdd08195e1a5cdd60621b604482015260640161095f565b60008381526013602052604090205484146120935760405162461bcd60e51b81526020600482015260146024820152730a8ded6cadc5ecaeccadce840dad2e6dac2e8c6d60631b604482015260640161095f565b600083815260126020908152604080832054878452600e8352818420818552909252808320815160c081019092528054929392829060ff1660048111156120dc576120dc614545565b60048111156120ed576120ed614545565b815260200160018201805461210190614b7e565b80601f016020809104026020016040519081016040528092919081815260200182805461212d90614b7e565b801561217a5780601f1061214f5761010080835404028352916020019161217a565b820191906000526020600020905b81548152906001019060200180831161215d57829003601f168201915b50505050508152602001600282015481526020016003820154815260200160048201805480602002602001604051908101604052809291908181526020016000905b828210156122685783829060005260206000200180546121db90614b7e565b80601f016020809104026020016040519081016040528092919081815260200182805461220790614b7e565b80156122545780601f1061222957610100808354040283529160200191612254565b820191906000526020600020905b81548152906001019060200180831161223757829003601f168201915b5050505050815260200190600101906121bc565b50505050815260200160058201805480602002602001604051908101604052809291908181526020016000905b828210156123415783829060005260206000200180546122b490614b7e565b80601f01602080910402602001604051908101604052809291908181526020018280546122e090614b7e565b801561232d5780601f106123025761010080835404028352916020019161232d565b820191906000526020600020905b81548152906001019060200180831161231057829003601f168201915b505050505081526020019060010190612295565b5050505081525050905060005b8160800151518110156123ab5784805190602001208260800151828151811061237957612379614e09565b6020026020010151805190602001200361239957600193505050506123b3565b806123a381614ceb565b91505061234e565b506000925050505b9392505050565b60106020908152600092835260408084209091529082529020805481906123e090614b7e565b80601f016020809104026020016040519081016040528092919081815260200182805461240c90614b7e565b80156124595780601f1061242e57610100808354040283529160200191612459565b820191906000526020600020905b81548152906001019060200180831161243c57829003601f168201915b50505050509080600101805461246e90614b7e565b80601f016020809104026020016040519081016040528092919081815260200182805461249a90614b7e565b80156124e75780601f106124bc576101008083540402835291602001916124e7565b820191906000526020600020905b8154815290600101906020018083116124ca57829003601f168201915b5050505050908060020180546124fc90614b7e565b80601f016020809104026020016040519081016040528092919081815260200182805461252890614b7e565b80156125755780601f1061254a57610100808354040283529160200191612575565b820191906000526020600020905b81548152906001019060200180831161255857829003601f168201915b5050506003909301549192505060ff1684565b60116020908152600093845260408085208252928452919092208251808401830180519281529083019390920192909220919052805481906125c990614b7e565b80601f01602080910402602001604051908101604052809291908181526020018280546125f590614b7e565b80156126425780601f1061261757610100808354040283529160200191612642565b820191906000526020600020905b81548152906001019060200180831161262557829003601f168201915b5050505050908060010154908060020154905083565b6126606132a0565b6000838152600460205260409020546126b25760405162461bcd60e51b8152602060048201526014602482015273151bdad95b88191bd95cc81b9bdd08195e1a5cdd60621b604482015260640161095f565b600083815260136020908152604080832054808452600b9092529091205461270c5760405162461bcd60e51b815260206004820152600d60248201526c155b9adb9bdddb88195d995b9d609a1b604482015260640161095f565b600061271884866106e7565b116127575760405162461bcd60e51b815260206004820152600f60248201526e139bc81d1a58dad95d081bdddb9959608a1b604482015260640161095f565b6000848152600c602052604090205460ff16156127ac5760405162461bcd60e51b8152602060048201526013602482015272151a58dad95d08185b1c9958591e481d5cd959606a1b604482015260640161095f565b6000848152600d602052604081205460ff1660028111156127cf576127cf614545565b146128105760405162461bcd60e51b81526020600482015260116024820152705469636b6574206e6f742061637469766560781b604482015260640161095f565b6000848152600c60205260409020805460ff19166001179055811561288e576000848152600d6020526040902080546002919060ff1916600183021790555083817ff4245df30944233e7208c51c270455d1128b5ec5c18d623367b49e7254214b9d6002604051612881919061455b565b60405180910390a36128e8565b6000848152600d6020526040902080546001919060ff19168280021790555083817ff4245df30944233e7208c51c270455d1128b5ec5c18d623367b49e7254214b9d60016040516128df919061455b565b60405180910390a35b6040516001600160a01b0384169082907f07c2221c844690cb15e32907258d38446cd4a17bc9b84e2069cd955615d547fd90600090a350505050565b6001600160a01b03918216600090815260016020908152604080832093909416825291909152205460ff1690565b61295a6132a0565b6000878152600b60205260409020546129855760405162461bcd60e51b815260040161095f90614bf0565b6000878152600f60205260409081902054815160c0810190925290808760048111156129b3576129b3614545565b815260208082018a90526040808301899052606083018890526080830187905260a090920185905260008b8152600e82528281208582529091522081518154829060ff19166001836004811115612a0c57612a0c614545565b021790555060208201516001820190612a259082614d4a565b50604082015160028201556060820151600382015560808201518051612a55916004840191602090910190613e2b565b5060a08201518051612a71916005840191602090910190613e2b565b5050506000888152600f60205260408120805491612a8e83614ceb565b919050555080887f73f2c5150dd3bafcdfcfd66cdd6938bc381635e48cebe16c6d424dfcf68fe85489604051612ac49190613fb1565b60405180910390a35050505050505050565b6001600160a01b0385161580612af357506001600160a01b038416155b80612b0b57506003546001600160a01b038681169116145b15612b2257612b1d858585858561351a565b612dd8565b600083815260136020908152604080832054808452600b835281842082516101208101845281548152600182015494810194909452600281015492840192909252600382015460ff808216151560608601526101009091041615156080840152600482018054919493929160a084019190612b9c90614b7e565b80601f0160208091040260200160405190810160405280929190818152602001828054612bc890614b7e565b8015612c155780601f10612bea57610100808354040283529160200191612c15565b820191906000526020600020905b815481529060010190602001808311612bf857829003601f168201915b50505050508152602001600582018054612c2e90614b7e565b80601f0160208091040260200160405190810160405280929190818152602001828054612c5a90614b7e565b8015612ca75780601f10612c7c57610100808354040283529160200191612ca7565b820191906000526020600020905b815481529060010190602001808311612c8a57829003601f168201915b5050509183525050600691909101546001600160601b038116602080840191909152600160601b9091046001600160a01b0316604090920191909152810151909150421080612cf95750806040015142115b612d515760405162461bcd60e51b8152602060048201526024808201527f43616e6e6f74207472616e73666572207469636b65747320647572696e6720656044820152631d995b9d60e21b606482015260840161095f565b806060015180612d65575080604001514210155b612dc85760405162461bcd60e51b815260206004820152602e60248201527f5469636b65747320617265206e6f6e2d7472616e7366657261626c652062656660448201526d6f7265206576656e7420656e647360901b606482015260840161095f565b612dd5878787878761351a565b50505b5050505050565b612de76132a0565b6001600160a01b038116612e1157604051631e4fbdf760e01b81526000600482015260240161095f565b612e1a81613432565b50565b6001600160a01b0383163314801590612e3d5750612e3b8333612924565b155b15612e4857336118ae565b6118e6838383613579565b612e8d6040805160c08101909152806000815260200160608152602001600081526020016000815260200160608152602001606081525090565b6000838152600f60205260409020548210612ed95760405162461bcd60e51b815260206004820152600c60248201526b24b73b30b634b2103a34b2b960a11b604482015260640161095f565b6000838152600e6020908152604080832085845290915290819020815160c081019092528054829060ff166004811115612f1557612f15614545565b6004811115612f2657612f26614545565b8152602001600182018054612f3a90614b7e565b80601f0160208091040260200160405190810160405280929190818152602001828054612f6690614b7e565b8015612fb35780601f10612f8857610100808354040283529160200191612fb3565b820191906000526020600020905b815481529060010190602001808311612f9657829003601f168201915b50505050508152602001600282015481526020016003820154815260200160048201805480602002602001604051908101604052809291908181526020016000905b828210156130a157838290600052602060002001805461301490614b7e565b80601f016020809104026020016040519081016040528092919081815260200182805461304090614b7e565b801561308d5780601f106130625761010080835404028352916020019161308d565b820191906000526020600020905b81548152906001019060200180831161307057829003601f168201915b505050505081526020019060010190612ff5565b50505050815260200160058201805480602002602001604051908101604052809291908181526020016000905b8282101561317a5783829060005260206000200180546130ed90614b7e565b80601f016020809104026020016040519081016040528092919081815260200182805461311990614b7e565b80156131665780601f1061313b57610100808354040283529160200191613166565b820191906000526020600020905b81548152906001019060200180831161314957829003601f168201915b5050505050815260200190600101906130ce565b50505091525090949350505050565b60006001600160e01b0319821663152a902d60e11b14806107095750610709826135e1565b606060006131bb83613631565b60010190506000816001600160401b038111156131da576131da614058565b6040519080825280601f01601f191660200182016040528015613204576020820181803683370190505b5090508181016020015b600019016f181899199a1a9b1b9c1cb0b131b232b360811b600a86061a8153600a850494508461320e57509392505050565b6001600160a01b03841661326a57604051632bfa23e760e11b81526000600482015260240161095f565b6001600160a01b03851661329357604051626a0d4560e21b81526000600482015260240161095f565b612dd88585858585613709565b6003546001600160a01b031633146118fd5760405163118cdaa760e01b815233600482015260240161095f565b6127106001600160601b0382168110156133135760405163dfd1fc1b60e01b8152600481018590526001600160601b03831660248201526044810182905260640161095f565b6001600160a01b03831661334457604051634b4f842960e11b8152600481018590526000602482015260440161095f565b506040805180820182526001600160a01b0393841681526001600160601b0392831660208083019182526000968752600790529190942093519051909116600160a01b029116179055565b6001600160a01b0384166133b957604051632bfa23e760e11b81526000600482015260240161095f565b60408051600180825260208201869052818301908152606082018590526080820190925290610fd3600087848487613709565b6001600160a01b03831661341557604051626a0d4560e21b81526000600482015260240161095f565b6118e6836000848460405180602001604052806000815250613709565b600380546001600160a01b038381166001600160a01b0319831681179093556040519116919082907f8be0079c531659141344cd1fd0a4f28419497f9722a3daafe3b4186f6b6457e090600090a35050565b6001600160a01b0382166134ad5760405162ced3e160e81b81526000600482015260240161095f565b6001600160a01b03838116600081815260016020908152604080832094871680845294825291829020805460ff191686151590811790915591519182527f17307eab39ab6107e8899845ad3d59bd9653f200f220920489ca2b5937696c31910160405180910390a3505050565b336001600160a01b038616811480159061353b57506135398682612924565b155b1561356c5760405163711bec9160e11b81526001600160a01b0380831660048301528716602482015260440161095f565b610fd3868686868661375c565b6001600160a01b0383166135a257604051626a0d4560e21b81526000600482015260240161095f565b604080516001808252602082018590528183019081526060820184905260a08201909252600060808201818152919291612dd891879185908590613709565b60006001600160e01b03198216636cdb3d1360e11b148061361257506001600160e01b031982166303a24d0760e21b145b8061070957506301ffc9a760e01b6001600160e01b0319831614610709565b60008072184f03e93ff9f4daa797ed6e38ed64bf6a1f0160401b83106136705772184f03e93ff9f4daa797ed6e38ed64bf6a1f0160401b830492506040015b6d04ee2d6d415b85acef8100000000831061369c576d04ee2d6d415b85acef8100000000830492506020015b662386f26fc1000083106136ba57662386f26fc10000830492506010015b6305f5e10083106136d2576305f5e100830492506008015b61271083106136e657612710830492506004015b606483106136f8576064830492506002015b600a83106107095760010192915050565b613715858585856137e1565b6001600160a01b03841615612dd8578251339060010361374e5760208481015190840151613747838989858589613903565b5050610fd3565b610fd3818787878787613a27565b6001600160a01b03841661378657604051632bfa23e760e11b81526000600482015260240161095f565b6001600160a01b0385166137af57604051626a0d4560e21b81526000600482015260240161095f565b60408051600180825260208201869052818301908152606082018590526080820190925290612dd58787848487613709565b6137ed84848484613b10565b60005b8251811015612dd857600083828151811061380d5761380d614e09565b60200260200101519050600083838151811061382b5761382b614e09565b602002602001015190506000601360008481526020019081526020016000205490508060000361386557613862620f424084614bce565b90505b6001600160a01b03881661389c5760008181526014602052604081208054849290613891908490614cd8565b909155506138ed9050565b6001600160a01b0387166138ed5760008181526014602052604090205482116138dd5760008181526014602052604081208054849290613891908490614e41565b6000818152601460205260408120555b50505080806138fb90614ceb565b9150506137f0565b6001600160a01b0384163b15610fd35760405163f23a6e6160e01b81526001600160a01b0385169063f23a6e61906139479089908990889088908890600401614e54565b6020604051808303816000875af1925050508015613982575060408051601f3d908101601f1916820190925261397f91810190614e99565b60015b6139eb573d8080156139b0576040519150601f19603f3d011682016040523d82523d6000602084013e6139b5565b606091505b5080516000036139e357604051632bfa23e760e11b81526001600160a01b038616600482015260240161095f565b805160208201fd5b6001600160e01b0319811663f23a6e6160e01b14612dd557604051632bfa23e760e11b81526001600160a01b038616600482015260240161095f565b6001600160a01b0384163b15610fd35760405163bc197c8160e01b81526001600160a01b0385169063bc197c8190613a6b9089908990889088908890600401614eb6565b6020604051808303816000875af1925050508015613aa6575060408051601f3d908101601f19168201909252613aa391810190614e99565b60015b613ad4573d8080156139b0576040519150601f19603f3d011682016040523d82523d6000602084013e6139b5565b6001600160e01b0319811663bc197c8160e01b14612dd557604051632bfa23e760e11b81526001600160a01b038616600482015260240161095f565b613b1c84848484613c0e565b6001600160a01b038416613ba5576000805b8351811015613b8b5760208181028481018201519086018201516000908152600490925260408220805491928392613b67908490614cd8565b90915550613b7790508184614cd8565b92505080613b8490614ceb565b9050613b2e565b508060056000828254613b9e9190614cd8565b9091555050505b6001600160a01b038316613c08576000805b8351811015613bfc576020818102848101820151908601820151600090815260049092526040909120805482900390559190910190613bf581614ceb565b9050613bb7565b50600580549190910390555b50505050565b8051825114613c3d5781518151604051635b05999160e01b81526004810192909252602482015260440161095f565b3360005b8351811015613d4c576020818102858101820151908501909101516001600160a01b03881615613cf4576000828152602081815260408083206001600160a01b038c16845290915290205481811015613ccd576040516303dee4c560e01b81526001600160a01b038a16600482015260248101829052604481018390526064810184905260840161095f565b6000838152602081815260408083206001600160a01b038d16845290915290209082900390555b6001600160a01b03871615613d39576000828152602081815260408083206001600160a01b038b16845290915281208054839290613d33908490614cd8565b90915550505b505080613d4590614ceb565b9050613c41565b508251600103613dcd5760208301516000906020840151909150856001600160a01b0316876001600160a01b0316846001600160a01b03167fc3d58168c5ae7397731d063d5bbf3d657854427343f4c083240f7aacaa2d0f628585604051613dbe929190918252602082015260400190565b60405180910390a45050612dd8565b836001600160a01b0316856001600160a01b0316826001600160a01b03167f4a39dc06d4c0dbc64b70af90fd698a233a518aa5d07e595d983b8c0526c8f7fb8686604051613e1c929190614f14565b60405180910390a45050505050565b828054828255906000526020600020908101928215613e71579160200282015b82811115613e715782518290613e619082614d4a565b5091602001919060010190613e4b565b50613e7d929150613e81565b5090565b80821115613e7d576000613e958282613e9e565b50600101613e81565b508054613eaa90614b7e565b6000825580601f10613eba575050565b601f016020900490600052602060002090810190612e1a91905b80821115613e7d5760008155600101613ed4565b80356001600160a01b0381168114613eff57600080fd5b919050565b60008060408385031215613f1757600080fd5b613f2083613ee8565b946020939093013593505050565b6001600160e01b031981168114612e1a57600080fd5b600060208284031215613f5657600080fd5b81356123b381613f2e565b60005b83811015613f7c578181015183820152602001613f64565b50506000910152565b60008151808452613f9d816020860160208601613f61565b601f01601f19169290920160200192915050565b6020815260006123b36020830184613f85565b600060208284031215613fd657600080fd5b5035919050565b60006101208b83528a6020840152896040840152881515606084015287151560808401528060a084015261401381840188613f85565b905082810360c08401526140278187613f85565b6001600160601b039590951660e084015250506001600160a01b039190911661010090910152979650505050505050565b634e487b7160e01b600052604160045260246000fd5b604051601f8201601f191681016001600160401b038111828210171561409657614096614058565b604052919050565b600082601f8301126140af57600080fd5b81356001600160401b038111156140c8576140c8614058565b6140db601f8201601f191660200161406e565b8181528460208386010111156140f057600080fd5b816020850160208301376000918101602001919091529392505050565b60008060006060848603121561412257600080fd5b8335925061413260208501613ee8565b915060408401356001600160401b0381111561414d57600080fd5b6141598682870161409e565b9150509250925092565b6000806040838503121561417657600080fd5b50508035926020909101359150565b6060815260006141986060830186613f85565b82810360208401526141aa8186613f85565b905082810360408401526141be8185613f85565b9695505050505050565b60006001600160401b038211156141e1576141e1614058565b5060051b60200190565b600082601f8301126141fc57600080fd5b8135602061421161420c836141c8565b61406e565b82815260059290921b8401810191818101908684111561423057600080fd5b8286015b8481101561424b5780358352918301918301614234565b509695505050505050565b600080600080600060a0868803121561426e57600080fd5b61427786613ee8565b945061428560208701613ee8565b935060408601356001600160401b03808211156142a157600080fd5b6142ad89838a016141eb565b945060608801359150808211156142c357600080fd5b6142cf89838a016141eb565b935060808801359150808211156142e557600080fd5b506142f28882890161409e565b9150509295509295909350565b80356001600160601b0381168114613eff57600080fd5b60008060006060848603121561432b57600080fd5b8335925061433b60208501613ee8565b9150614349604085016142ff565b90509250925092565b60008060008060008060c0878903121561436b57600080fd5b863595506020870135945061438260408801613ee8565b935060608701356001600160401b038082111561439e57600080fd5b6143aa8a838b0161409e565b945060808901359150808211156143c057600080fd5b6143cc8a838b0161409e565b935060a08901359150808211156143e257600080fd5b506143ef89828a0161409e565b9150509295509295509295565b6000806040838503121561440f57600080fd5b82356001600160401b038082111561442657600080fd5b818501915085601f83011261443a57600080fd5b8135602061444a61420c836141c8565b82815260059290921b8401810191818101908984111561446957600080fd5b948201945b8386101561448e5761447f86613ee8565b8252948201949082019061446e565b965050860135925050808211156144a457600080fd5b506144b1858286016141eb565b9150509250929050565b600081518084526020808501945080840160005b838110156144eb578151875295820195908201906001016144cf565b509495945050505050565b6020815260006123b360208301846144bb565b60006020828403121561451b57600080fd5b81356001600160401b0381111561453157600080fd5b61453d8482850161409e565b949350505050565b634e487b7160e01b600052602160045260246000fd5b602081016003831061456f5761456f614545565b91905290565b60008060006060848603121561458a57600080fd5b61459384613ee8565b925060208401356001600160401b03808211156145af57600080fd5b6145bb878388016141eb565b935060408601359150808211156145d157600080fd5b50614159868287016141eb565b600080600080608085870312156145f457600080fd5b8435935061460460208601613ee8565b925060408501356001600160401b0381111561461f57600080fd5b61462b8782880161409e565b949793965093946060013593505050565b600080600080600080600080610100898b03121561465957600080fd5b8835975060208901359650604089013595506060890135945060808901356001600160401b038082111561468c57600080fd5b6146988c838d0161409e565b955060a08b01359150808211156146ae57600080fd5b506146bb8b828c0161409e565b9350506146ca60c08a01613ee8565b91506146d860e08a016142ff565b90509295985092959890939650565b600581106146f7576146f7614545565b9052565b61470581866146e7565b60806020820152600061471b6080830186613f85565b6040830194909452506060015292915050565b6000806040838503121561474157600080fd5b8235915060208301356001600160401b0381111561475e57600080fd5b6144b1858286016141eb565b80358015158114613eff57600080fd5b6000806040838503121561478d57600080fd5b61479683613ee8565b91506147a46020840161476a565b90509250929050565b6000806000606084860312156147c257600080fd5b833592506020840135915060408401356001600160401b0381111561414d57600080fd5b6080815260006147f96080830187613f85565b828103602084015261480b8187613f85565b9050828103604084015261481f8186613f85565b915050821515606083015295945050505050565b6060815260006148466060830186613f85565b60208301949094525060400152919050565b60008060006060848603121561486d57600080fd5b8335925061487d60208501613ee8565b91506143496040850161476a565b6000806040838503121561489e57600080fd5b6148a783613ee8565b91506147a460208401613ee8565b600082601f8301126148c657600080fd5b813560206148d661420c836141c8565b82815260059290921b840181019181810190868411156148f557600080fd5b8286015b8481101561424b5780356001600160401b038111156149185760008081fd5b6149268986838b010161409e565b8452509183019183016148f9565b600080600080600080600060e0888a03121561494f57600080fd5b8735965060208801356001600160401b038082111561496d57600080fd5b6149798b838c0161409e565b975060408a013591506005821061498f57600080fd5b909550606089013594506080890135935060a089013590808211156149b357600080fd5b6149bf8b838c016148b5565b935060c08a01359150808211156149d557600080fd5b506149e28a828b016148b5565b91505092959891949750929550565b600080600080600060a08688031215614a0957600080fd5b614a1286613ee8565b9450614a2060208701613ee8565b9350604086013592506060860135915060808601356001600160401b03811115614a4957600080fd5b6142f28882890161409e565b600060208284031215614a6757600080fd5b6123b382613ee8565b600080600060608486031215614a8557600080fd5b614a8e84613ee8565b95602085013595506040909401359392505050565b600081518084526020808501808196508360051b8101915082860160005b85811015614aeb578284038952614ad9848351613f85565b98850198935090840190600101614ac1565b5091979650505050505050565b60208152614b0a6020820183516146e7565b6000602083015160c06040840152614b2560e0840182613f85565b905060408401516060840152606084015160808401526080840151601f19808584030160a0860152614b578383614aa3565b925060a08601519150808584030160c086015250614b758282614aa3565b95945050505050565b600181811c90821680614b9257607f821691505b602082108103614bb257634e487b7160e01b600052602260045260246000fd5b50919050565b634e487b7160e01b600052601160045260246000fd5b600082614beb57634e487b7160e01b600052601260045260246000fd5b500490565b602080825260149082015273115d995b9d08191bd95cc81b9bdd08195e1a5cdd60621b604082015260600190565b6000808454614c2c81614b7e565b60018281168015614c445760018114614c5957614c88565b60ff1984168752821515830287019450614c88565b8860005260208060002060005b85811015614c7f5781548a820152908401908201614c66565b50505082870194505b505050508351614c9c818360208801613f61565b01949350505050565b60008251614cb7818460208701613f61565b9190910192915050565b808202811582820484141761070957610709614bb8565b8082018082111561070957610709614bb8565b600060018201614cfd57614cfd614bb8565b5060010190565b601f8211156118e657600081815260208120601f850160051c81016020861015614d2b5750805b601f850160051c820191505b81811015610fd357828155600101614d37565b81516001600160401b03811115614d6357614d63614058565b614d7781614d718454614b7e565b84614d04565b602080601f831160018114614dac5760008415614d945750858301515b600019600386901b1c1916600185901b178555610fd3565b600085815260208120601f198616915b82811015614ddb57888601518255948401946001909101908401614dbc565b5085821015614df95787850151600019600388901b60f8161c191681555b5050505050600190811b01905550565b634e487b7160e01b600052603260045260246000fd5b604081526000614e326040830185613f85565b90508260208301529392505050565b8181038181111561070957610709614bb8565b6001600160a01b03868116825285166020820152604081018490526060810183905260a060808201819052600090614e8e90830184613f85565b979650505050505050565b600060208284031215614eab57600080fd5b81516123b381613f2e565b6001600160a01b0386811682528516602082015260a060408201819052600090614ee2908301866144bb565b8281036060840152614ef481866144bb565b90508281036080840152614f088185613f85565b98975050505050505050565b604081526000614f2760408301856144bb565b8281036020840152614b7581856144bb56fea2646970667358221220f04dedf0da147d5495db48e75dc0d426616cf9cbb09032644674b2ee7c75546664736f6c63430008140033",
  "linkReferences": {},
  "deployedLinkReferences": {}
}