{
  "_format": "hh-sol-artifact-1",
  "contractName": "UnchainedTickets",
  "sourceName": "contracts/UnchainedTickets.sol",
  "abi": [
    {
      "inputs": [
        {
          "internalType": "string",
          "name": "baseURI_",
          "type": "string"
        }
      ],
      "stateMutability": "nonpayable",
      "type": "constructor"
    },
    {
      "inputs": [
        {
          "internalType": "address",
          "name": "sender",
          "type": "address"
        },
        {
          "internalType": "uint256",
          "name": "balance",
          "type": "uint256"
        },
        {
          "internalType": "uint256",
          "name": "needed",
          "type": "uint256"
        },
        {
          "internalType": "uint256",
          "name": "tokenId",
          "type": "uint256"
        }
      ],
      "name": "ERC1155InsufficientBalance",
      "type": "error"
    },
    {
      "inputs": [
        {
          "internalType": "address",
          "name": "approver",
          "type": "address"
        }
      ],
      "name": "ERC1155InvalidApprover",
      "type": "error"
    },
    {
      "inputs": [
        {
          "internalType": "uint256",
          "name": "idsLength",
          "type": "uint256"
        },
        {
          "internalType": "uint256",
          "name": "valuesLength",
          "type": "uint256"
        }
      ],
      "name": "ERC1155InvalidArrayLength",
      "type": "error"
    },
    {
      "inputs": [
        {
          "internalType": "address",
          "name": "operator",
          "type": "address"
        }
      ],
      "name": "ERC1155InvalidOperator",
      "type": "error"
    },
    {
      "inputs": [
        {
          "internalType": "address",
          "name": "receiver",
          "type": "address"
        }
      ],
      "name": "ERC1155InvalidReceiver",
      "type": "error"
    },
    {
      "inputs": [
        {
          "internalType": "address",
          "name": "sender",
          "type": "address"
        }
      ],
      "name": "ERC1155InvalidSender",
      "type": "error"
    },
    {
      "inputs": [
        {
          "internalType": "address",
          "name": "operator",
          "type": "address"
        },
        {
          "internalType": "address",
          "name": "owner",
          "type": "address"
        }
      ],
      "name": "ERC1155MissingApprovalForAll",
      "type": "error"
    },
    {
      "inputs": [
        {
          "internalType": "uint256",
          "name": "numerator",
          "type": "uint256"
        },
        {
          "internalType": "uint256",
          "name": "denominator",
          "type": "uint256"
        }
      ],
      "name": "ERC2981InvalidDefaultRoyalty",
      "type": "error"
    },
    {
      "inputs": [
        {
          "internalType": "address",
          "name": "receiver",
          "type": "address"
        }
      ],
      "name": "ERC2981InvalidDefaultRoyaltyReceiver",
      "type": "error"
    },
    {
      "inputs": [
        {
          "internalType": "uint256",
          "name": "tokenId",
          "type": "uint256"
        },
        {
          "internalType": "uint256",
          "name": "numerator",
          "type": "uint256"
        },
        {
          "internalType": "uint256",
          "name": "denominator",
          "type": "uint256"
        }
      ],
      "name": "ERC2981InvalidTokenRoyalty",
      "type": "error"
    },
    {
      "inputs": [
        {
          "internalType": "uint256",
          "name": "tokenId",
          "type": "uint256"
        },
        {
          "internalType": "address",
          "name": "receiver",
          "type": "address"
        }
      ],
      "name": "ERC2981InvalidTokenRoyaltyReceiver",
      "type": "error"
    },
    {
      "inputs": [
        {
          "internalType": "address",
          "name": "owner",
          "type": "address"
        }
      ],
      "name": "OwnableInvalidOwner",
      "type": "error"
    },
    {
      "inputs": [
        {
          "internalType": "address",
          "name": "account",
          "type": "address"
        }
      ],
      "name": "OwnableUnauthorizedAccount",
      "type": "error"
    },
    {
      "anonymous": false,
      "inputs": [
        {
          "indexed": true,
          "internalType": "address",
          "name": "account",
          "type": "address"
        },
        {
          "indexed": true,
          "internalType": "address",
          "name": "operator",
          "type": "address"
        },
        {
          "indexed": false,
          "internalType": "bool",
          "name": "approved",
          "type": "bool"
        }
      ],
      "name": "ApprovalForAll",
      "type": "event"
    },
    {
      "anonymous": false,
      "inputs": [
        {
          "indexed": true,
          "internalType": "uint256",
          "name": "eventId",
          "type": "uint256"
        },
        {
          "indexed": false,
          "internalType": "uint256",
          "name": "maxSupply",
          "type": "uint256"
        },
        {
          "indexed": false,
          "internalType": "uint256",
          "name": "eventTimestamp",
          "type": "uint256"
        }
      ],
      "name": "EventCreated",
      "type": "event"
    },
    {
      "anonymous": false,
      "inputs": [
        {
          "indexed": true,
          "internalType": "address",
          "name": "previousOwner",
          "type": "address"
        },
        {
          "indexed": true,
          "internalType": "address",
          "name": "newOwner",
          "type": "address"
        }
      ],
      "name": "OwnershipTransferred",
      "type": "event"
    },
    {
      "anonymous": false,
      "inputs": [
        {
          "indexed": true,
          "internalType": "uint256",
          "name": "eventId",
          "type": "uint256"
        },
        {
          "indexed": true,
          "internalType": "address",
          "name": "holder",
          "type": "address"
        },
        {
          "indexed": false,
          "internalType": "string",
          "name": "perkName",
          "type": "string"
        },
        {
          "indexed": false,
          "internalType": "uint256",
          "name": "quantity",
          "type": "uint256"
        }
      ],
      "name": "PerkConsumed",
      "type": "event"
    },
    {
      "anonymous": false,
      "inputs": [
        {
          "indexed": true,
          "internalType": "uint256",
          "name": "eventId",
          "type": "uint256"
        },
        {
          "indexed": false,
          "internalType": "address",
          "name": "recipient",
          "type": "address"
        },
        {
          "indexed": false,
          "internalType": "uint96",
          "name": "royaltyBps",
          "type": "uint96"
        }
      ],
      "name": "RoyaltyConfigured",
      "type": "event"
    },
    {
      "anonymous": false,
      "inputs": [
        {
          "indexed": true,
          "internalType": "uint256",
          "name": "eventId",
          "type": "uint256"
        },
        {
          "indexed": true,
          "internalType": "uint256",
          "name": "tokenId",
          "type": "uint256"
        },
        {
          "indexed": false,
          "internalType": "string",
          "name": "section",
          "type": "string"
        },
        {
          "indexed": false,
          "internalType": "string",
          "name": "row",
          "type": "string"
        },
        {
          "indexed": false,
          "internalType": "string",
          "name": "seat",
          "type": "string"
        }
      ],
      "name": "SeatAssigned",
      "type": "event"
    },
    {
      "anonymous": false,
      "inputs": [
        {
          "indexed": true,
          "internalType": "uint256",
          "name": "eventId",
          "type": "uint256"
        },
        {
          "indexed": true,
          "internalType": "uint256",
          "name": "tokenId",
          "type": "uint256"
        },
        {
          "indexed": true,
          "internalType": "address",
          "name": "recipient",
          "type": "address"
        },
        {
          "indexed": false,
          "internalType": "uint256",
          "name": "tierId",
          "type": "uint256"
        }
      ],
      "name": "TicketMinted",
      "type": "event"
    },
    {
      "anonymous": false,
      "inputs": [
        {
          "indexed": true,
          "internalType": "uint256",
          "name": "eventId",
          "type": "uint256"
        },
        {
          "indexed": true,
          "internalType": "uint256",
          "name": "tokenId",
          "type": "uint256"
        },
        {
          "indexed": false,
          "internalType": "enum UnchainedTickets.TicketState",
          "name": "newState",
          "type": "uint8"
        }
      ],
      "name": "TicketTransformed",
      "type": "event"
    },
    {
      "anonymous": false,
      "inputs": [
        {
          "indexed": true,
          "internalType": "uint256",
          "name": "eventId",
          "type": "uint256"
        },
        {
          "indexed": true,
          "internalType": "address",
          "name": "owner",
          "type": "address"
        }
      ],
      "name": "TicketUsed",
      "type": "event"
    },
    {
      "anonymous": false,
      "inputs": [
        {
          "indexed": true,
          "internalType": "uint256",
          "name": "eventId",
          "type": "uint256"
        },
        {
          "indexed": true,
          "internalType": "uint256",
          "name": "tierId",
          "type": "uint256"
        },
        {
          "indexed": false,
          "internalType": "string",
          "name": "tierName",
          "type": "string"
        }
      ],
      "name": "TierCreated",
      "type": "event"
    },
    {
      "anonymous": false,
      "inputs": [
        {
          "indexed": true,
          "internalType": "address",
          "name": "operator",
          "type": "address"
        },
        {
          "indexed": true,
          "internalType": "address",
          "name": "from",
          "type": "address"
        },
        {
          "indexed": true,
          "internalType": "address",
          "name": "to",
          "type": "address"
        },
        {
          "indexed": false,
          "internalType": "uint256[]",
          "name": "ids",
          "type": "uint256[]"
        },
        {
          "indexed": false,
          "internalType": "uint256[]",
          "name": "values",
          "type": "uint256[]"
        }
      ],
      "name": "TransferBatch",
      "type": "event"
    },
    {
      "anonymous": false,
      "inputs": [
        {
          "indexed": true,
          "internalType": "address",
          "name": "operator",
          "type": "address"
        },
        {
          "indexed": true,
          "internalType": "address",
          "name": "from",
          "type": "address"
        },
        {
          "indexed": true,
          "internalType": "address",
          "name": "to",
          "type": "address"
        },
        {
          "indexed": false,
          "internalType": "uint256",
          "name": "id",
          "type": "uint256"
        },
        {
          "indexed": false,
          "internalType": "uint256",
          "name": "value",
          "type": "uint256"
        }
      ],
      "name": "TransferSingle",
      "type": "event"
    },
    {
      "anonymous": false,
      "inputs": [
        {
          "indexed": false,
          "internalType": "string",
          "name": "value",
          "type": "string"
        },
        {
          "indexed": true,
          "internalType": "uint256",
          "name": "id",
          "type": "uint256"
        }
      ],
      "name": "URI",
      "type": "event"
    },
    {
      "inputs": [
        {
          "internalType": "address",
          "name": "account",
          "type": "address"
        },
        {
          "internalType": "uint256",
          "name": "id",
          "type": "uint256"
        }
      ],
      "name": "balanceOf",
      "outputs": [
        {
          "internalType": "uint256",
          "name": "",
          "type": "uint256"
        }
      ],
      "stateMutability": "view",
      "type": "function"
    },
    {
      "inputs": [
        {
          "internalType": "address[]",
          "name": "accounts",
          "type": "address[]"
        },
        {
          "internalType": "uint256[]",
          "name": "ids",
          "type": "uint256[]"
        }
      ],
      "name": "balanceOfBatch",
      "outputs": [
        {
          "internalType": "uint256[]",
          "name": "",
          "type": "uint256[]"
        }
      ],
      "stateMutability": "view",
      "type": "function"
    },
    {
      "inputs": [
        {
          "internalType": "uint256",
          "name": "eventId",
          "type": "uint256"
        },
        {
          "internalType": "address[]",
          "name": "holders",
          "type": "address[]"
        }
      ],
      "name": "batchTransformToSouvenirs",
      "outputs": [],
      "stateMutability": "nonpayable",
      "type": "function"
    },
    {
      "inputs": [
        {
          "internalType": "address",
          "name": "account",
          "type": "address"
        },
        {
          "internalType": "uint256",
          "name": "id",
          "type": "uint256"
        },
        {
          "internalType": "uint256",
          "name": "value",
          "type": "uint256"
        }
      ],
      "name": "burn",
      "outputs": [],
      "stateMutability": "nonpayable",
      "type": "function"
    },
    {
      "inputs": [
        {
          "internalType": "address",
          "name": "account",
          "type": "address"
        },
        {
          "internalType": "uint256[]",
          "name": "ids",
          "type": "uint256[]"
        },
        {
          "internalType": "uint256[]",
          "name": "values",
          "type": "uint256[]"
        }
      ],
      "name": "burnBatch",
      "outputs": [],
      "stateMutability": "nonpayable",
      "type": "function"
    },
    {
      "inputs": [
        {
          "internalType": "uint256",
          "name": "eventId",
          "type": "uint256"
        },
        {
          "internalType": "uint256",
          "name": "tokenId",
          "type": "uint256"
        },
        {
          "internalType": "string",
          "name": "area",
          "type": "string"
        }
      ],
      "name": "canAccessArea",
      "outputs": [
        {
          "internalType": "bool",
          "name": "",
          "type": "bool"
        }
      ],
      "stateMutability": "view",
      "type": "function"
    },
    {
      "inputs": [
        {
          "internalType": "uint256",
          "name": "eventId",
          "type": "uint256"
        },
        {
          "internalType": "address",
          "name": "ticketHolder",
          "type": "address"
        },
        {
          "internalType": "string",
          "name": "perkName",
          "type": "string"
        },
        {
          "internalType": "uint256",
          "name": "quantity",
          "type": "uint256"
        }
      ],
      "name": "consumePerk",
      "outputs": [],
      "stateMutability": "nonpayable",
      "type": "function"
    },
    {
      "inputs": [
        {
          "internalType": "uint256",
          "name": "eventId",
          "type": "uint256"
        },
        {
          "internalType": "uint256",
          "name": "maxSupply",
          "type": "uint256"
        },
        {
          "internalType": "uint256",
          "name": "eventTimestamp",
          "type": "uint256"
        },
        {
          "internalType": "uint256",
          "name": "eventEndTimestamp",
          "type": "uint256"
        },
        {
          "internalType": "string",
          "name": "metadataURI",
          "type": "string"
        },
        {
          "internalType": "string",
          "name": "souvenirMetadataURI",
          "type": "string"
        },
        {
          "internalType": "address",
          "name": "royaltyRecipient",
          "type": "address"
        },
        {
          "internalType": "uint96",
          "name": "royaltyBps",
          "type": "uint96"
        }
      ],
      "name": "createEvent",
      "outputs": [],
      "stateMutability": "nonpayable",
      "type": "function"
    },
    {
      "inputs": [
        {
          "internalType": "uint256",
          "name": "eventId",
          "type": "uint256"
        },
        {
          "internalType": "string",
          "name": "tierName",
          "type": "string"
        },
        {
          "internalType": "enum UnchainedTickets.TicketTier",
          "name": "tier",
          "type": "uint8"
        },
        {
          "internalType": "uint256",
          "name": "maxSupply",
          "type": "uint256"
        },
        {
          "internalType": "uint256",
          "name": "priceCents",
          "type": "uint256"
        },
        {
          "internalType": "string[]",
          "name": "accessAreas",
          "type": "string[]"
        },
        {
          "internalType": "string[]",
          "name": "includedPerks",
          "type": "string[]"
        }
      ],
      "name": "createTier",
      "outputs": [],
      "stateMutability": "nonpayable",
      "type": "function"
    },
    {
      "inputs": [
        {
          "internalType": "uint256",
          "name": "",
          "type": "uint256"
        }
      ],
      "name": "eventTierCount",
      "outputs": [
        {
          "internalType": "uint256",
          "name": "",
          "type": "uint256"
        }
      ],
      "stateMutability": "view",
      "type": "function"
    },
    {
      "inputs": [
        {
          "internalType": "uint256",
          "name": "",
          "type": "uint256"
        },
        {
          "internalType": "uint256",
          "name": "",
          "type": "uint256"
        }
      ],
      "name": "eventTiers",
      "outputs": [
        {
          "internalType": "enum UnchainedTickets.TicketTier",
          "name": "tier",
          "type": "uint8"
        },
        {
          "internalType": "string",
          "name": "tierName",
          "type": "string"
        },
        {
          "internalType": "uint256",
          "name": "maxSupply",
          "type": "uint256"
        },
        {
          "internalType": "uint256",
          "name": "priceCents",
          "type": "uint256"
        }
      ],
      "stateMutability": "view",
      "type": "function"
    },
    {
      "inputs": [
        {
          "internalType": "uint256",
          "name": "",
          "type": "uint256"
        }
      ],
      "name": "eventTokenCounter",
      "outputs": [
        {
          "internalType": "uint256",
          "name": "",
          "type": "uint256"
        }
      ],
      "stateMutability": "view",
      "type": "function"
    },
    {
      "inputs": [
        {
          "internalType": "uint256",
          "name": "",
          "type": "uint256"
        }
      ],
      "name": "events",
      "outputs": [
        {
          "internalType": "uint256",
          "name": "maxSupply",
          "type": "uint256"
        },
        {
          "internalType": "uint256",
          "name": "eventTimestamp",
          "type": "uint256"
        },
        {
          "internalType": "uint256",
          "name": "eventEndTimestamp",
          "type": "uint256"
        },
        {
          "internalType": "bool",
          "name": "transferable",
          "type": "bool"
        },
        {
          "internalType": "bool",
          "name": "active",
          "type": "bool"
        },
        {
          "internalType": "string",
          "name": "metadataURI",
          "type": "string"
        },
        {
          "internalType": "string",
          "name": "souvenirMetadataURI",
          "type": "string"
        },
        {
          "internalType": "uint96",
          "name": "royaltyBps",
          "type": "uint96"
        },
        {
          "internalType": "address",
          "name": "royaltyRecipient",
          "type": "address"
        }
      ],
      "stateMutability": "view",
      "type": "function"
    },
    {
      "inputs": [
        {
          "internalType": "uint256",
          "name": "tokenId",
          "type": "uint256"
        }
      ],
      "name": "exists",
      "outputs": [
        {
          "internalType": "bool",
          "name": "",
          "type": "bool"
        }
      ],
      "stateMutability": "view",
      "type": "function"
    },
    {
      "inputs": [
        {
          "internalType": "uint256",
          "name": "eventId",
          "type": "uint256"
        },
        {
          "internalType": "address",
          "name": "holder",
          "type": "address"
        },
        {
          "internalType": "string",
          "name": "perkName",
          "type": "string"
        }
      ],
      "name": "getPerkStatus",
      "outputs": [
        {
          "internalType": "uint256",
          "name": "maxQuantity",
          "type": "uint256"
        },
        {
          "internalType": "uint256",
          "name": "consumed",
          "type": "uint256"
        }
      ],
      "stateMutability": "view",
      "type": "function"
    },
    {
      "inputs": [
        {
          "internalType": "uint256",
          "name": "eventId",
          "type": "uint256"
        },
        {
          "internalType": "uint256",
          "name": "tokenId",
          "type": "uint256"
        }
      ],
      "name": "getSeatAssignment",
      "outputs": [
        {
          "internalType": "string",
          "name": "section",
          "type": "string"
        },
        {
          "internalType": "string",
          "name": "row",
          "type": "string"
        },
        {
          "internalType": "string",
          "name": "seat",
          "type": "string"
        }
      ],
      "stateMutability": "view",
      "type": "function"
    },
    {
      "inputs": [
        {
          "internalType": "uint256",
          "name": "eventId",
          "type": "uint256"
        },
        {
          "internalType": "address",
          "name": "holder",
          "type": "address"
        }
      ],
      "name": "getTicketState",
      "outputs": [
        {
          "internalType": "enum UnchainedTickets.TicketState",
          "name": "",
          "type": "uint8"
        }
      ],
      "stateMutability": "view",
      "type": "function"
    },
    {
      "inputs": [
        {
          "internalType": "uint256",
          "name": "eventId",
          "type": "uint256"
        },
        {
          "internalType": "uint256",
          "name": "tierId",
          "type": "uint256"
        }
      ],
      "name": "getTierInfo",
      "outputs": [
        {
          "components": [
            {
              "internalType": "enum UnchainedTickets.TicketTier",
              "name": "tier",
              "type": "uint8"
            },
            {
              "internalType": "string",
              "name": "tierName",
              "type": "string"
            },
            {
              "internalType": "uint256",
              "name": "maxSupply",
              "type": "uint256"
            },
            {
              "internalType": "uint256",
              "name": "priceCents",
              "type": "uint256"
            },
            {
              "internalType": "string[]",
              "name": "accessAreas",
              "type": "string[]"
            },
            {
              "internalType": "string[]",
              "name": "includedPerks",
              "type": "string[]"
            }
          ],
          "internalType": "struct UnchainedTickets.TierConfig",
          "name": "",
          "type": "tuple"
        }
      ],
      "stateMutability": "view",
      "type": "function"
    },
    {
      "inputs": [
        {
          "internalType": "address",
          "name": "account",
          "type": "address"
        },
        {
          "internalType": "address",
          "name": "operator",
          "type": "address"
        }
      ],
      "name": "isApprovedForAll",
      "outputs": [
        {
          "internalType": "bool",
          "name": "",
          "type": "bool"
        }
      ],
      "stateMutability": "view",
      "type": "function"
    },
    {
      "inputs": [
        {
          "internalType": "uint256",
          "name": "eventId",
          "type": "uint256"
        },
        {
          "internalType": "uint256",
          "name": "tierId",
          "type": "uint256"
        },
        {
          "internalType": "address",
          "name": "recipient",
          "type": "address"
        },
        {
          "internalType": "string",
          "name": "section",
          "type": "string"
        },
        {
          "internalType": "string",
          "name": "row",
          "type": "string"
        },
        {
          "internalType": "string",
          "name": "seat",
          "type": "string"
        }
      ],
      "name": "mintTicketWithTier",
      "outputs": [
        {
          "internalType": "uint256",
          "name": "",
          "type": "uint256"
        }
      ],
      "stateMutability": "nonpayable",
      "type": "function"
    },
    {
      "inputs": [],
      "name": "name",
      "outputs": [
        {
          "internalType": "string",
          "name": "",
          "type": "string"
        }
      ],
      "stateMutability": "view",
      "type": "function"
    },
    {
      "inputs": [],
      "name": "owner",
      "outputs": [
        {
          "internalType": "address",
          "name": "",
          "type": "address"
        }
      ],
      "stateMutability": "view",
      "type": "function"
    },
    {
      "inputs": [
        {
          "internalType": "uint256",
          "name": "",
          "type": "uint256"
        },
        {
          "internalType": "address",
          "name": "",
          "type": "address"
        },
        {
          "internalType": "string",
          "name": "",
          "type": "string"
        }
      ],
      "name": "perkTracking",
      "outputs": [
        {
          "internalType": "string",
          "name": "perkName",
          "type": "string"
        },
        {
          "internalType": "uint256",
          "name": "maxQuantity",
          "type": "uint256"
        },
        {
          "internalType": "uint256",
          "name": "consumed",
          "type": "uint256"
        }
      ],
      "stateMutability": "view",
      "type": "function"
    },
    {
      "inputs": [],
      "name": "renounceOwnership",
      "outputs": [],
      "stateMutability": "nonpayable",
      "type": "function"
    },
    {
      "inputs": [
        {
          "internalType": "uint256",
          "name": "tokenId",
          "type": "uint256"
        },
        {
          "internalType": "uint256",
          "name": "salePrice",
          "type": "uint256"
        }
      ],
      "name": "royaltyInfo",
      "outputs": [
        {
          "internalType": "address",
          "name": "receiver",
          "type": "address"
        },
        {
          "internalType": "uint256",
          "name": "amount",
          "type": "uint256"
        }
      ],
      "stateMutability": "view",
      "type": "function"
    },
    {
      "inputs": [
        {
          "internalType": "address",
          "name": "from",
          "type": "address"
        },
        {
          "internalType": "address",
          "name": "to",
          "type": "address"
        },
        {
          "internalType": "uint256[]",
          "name": "ids",
          "type": "uint256[]"
        },
        {
          "internalType": "uint256[]",
          "name": "values",
          "type": "uint256[]"
        },
        {
          "internalType": "bytes",
          "name": "data",
          "type": "bytes"
        }
      ],
      "name": "safeBatchTransferFrom",
      "outputs": [],
      "stateMutability": "nonpayable",
      "type": "function"
    },
    {
      "inputs": [
        {
          "internalType": "address",
          "name": "from",
          "type": "address"
        },
        {
          "internalType": "address",
          "name": "to",
          "type": "address"
        },
        {
          "internalType": "uint256",
          "name": "id",
          "type": "uint256"
        },
        {
          "internalType": "uint256",
          "name": "value",
          "type": "uint256"
        },
        {
          "internalType": "bytes",
          "name": "data",
          "type": "bytes"
        }
      ],
      "name": "safeTransferFrom",
      "outputs": [],
      "stateMutability": "nonpayable",
      "type": "function"
    },
    {
      "inputs": [
        {
          "internalType": "uint256",
          "name": "",
          "type": "uint256"
        },
        {
          "internalType": "uint256",
          "name": "",
          "type": "uint256"
        }
      ],
      "name": "seatAssignments",
      "outputs": [
        {
          "internalType": "string",
          "name": "section",
          "type": "string"
        },
        {
          "internalType": "string",
          "name": "row",
          "type": "string"
        },
        {
          "internalType": "string",
          "name": "seat",
          "type": "string"
        },
        {
          "internalType": "bool",
          "name": "assigned",
          "type": "bool"
        }
      ],
      "stateMutability": "view",
      "type": "function"
    },
    {
      "inputs": [
        {
          "internalType": "address",
          "name": "operator",
          "type": "address"
        },
        {
          "internalType": "bool",
          "name": "approved",
          "type": "bool"
        }
      ],
      "name": "setApprovalForAll",
      "outputs": [],
      "stateMutability": "nonpayable",
      "type": "function"
    },
    {
      "inputs": [
        {
          "internalType": "string",
          "name": "baseURI_",
          "type": "string"
        }
      ],
      "name": "setBaseURI",
      "outputs": [],
      "stateMutability": "nonpayable",
      "type": "function"
    },
    {
      "inputs": [
        {
          "internalType": "bytes4",
          "name": "interfaceId",
          "type": "bytes4"
        }
      ],
      "name": "supportsInterface",
      "outputs": [
        {
          "internalType": "bool",
          "name": "",
          "type": "bool"
        }
      ],
      "stateMutability": "view",
      "type": "function"
    },
    {
      "inputs": [],
      "name": "symbol",
      "outputs": [
        {
          "internalType": "string",
          "name": "",
          "type": "string"
        }
      ],
      "stateMutability": "view",
      "type": "function"
    },
    {
      "inputs": [
        {
          "internalType": "uint256",
          "name": "",
          "type": "uint256"
        },
        {
          "internalType": "address",
          "name": "",
          "type": "address"
        }
      ],
      "name": "ticketStates",
      "outputs": [
        {
          "internalType": "enum UnchainedTickets.TicketState",
          "name": "",
          "type": "uint8"
        }
      ],
      "stateMutability": "view",
      "type": "function"
    },
    {
      "inputs": [
        {
          "internalType": "uint256",
          "name": "",
          "type": "uint256"
        }
      ],
      "name": "tokenToTier",
      "outputs": [
        {
          "internalType": "uint256",
          "name": "",
          "type": "uint256"
        }
      ],
      "stateMutability": "view",
      "type": "function"
    },
    {
      "inputs": [],
      "name": "totalSupply",
      "outputs": [
        {
          "internalType": "uint256",
          "name": "",
          "type": "uint256"
        }
      ],
      "stateMutability": "view",
      "type": "function"
    },
    {
      "inputs": [
        {
          "internalType": "uint256",
          "name": "id",
          "type": "uint256"
        }
      ],
      "name": "totalSupply",
      "outputs": [
        {
          "internalType": "uint256",
          "name": "",
          "type": "uint256"
        }
      ],
      "stateMutability": "view",
      "type": "function"
    },
    {
      "inputs": [
        {
          "internalType": "address",
          "name": "newOwner",
          "type": "address"
        }
      ],
      "name": "transferOwnership",
      "outputs": [],
      "stateMutability": "nonpayable",
      "type": "function"
    },
    {
      "inputs": [
        {
          "internalType": "uint256",
          "name": "eventId",
          "type": "uint256"
        },
        {
          "internalType": "address",
          "name": "recipient",
          "type": "address"
        },
        {
          "internalType": "uint96",
          "name": "royaltyBps",
          "type": "uint96"
        }
      ],
      "name": "updateRoyalty",
      "outputs": [],
      "stateMutability": "nonpayable",
      "type": "function"
    },
    {
      "inputs": [
        {
          "internalType": "uint256",
          "name": "tokenId",
          "type": "uint256"
        }
      ],
      "name": "uri",
      "outputs": [
        {
          "internalType": "string",
          "name": "",
          "type": "string"
        }
      ],
      "stateMutability": "view",
      "type": "function"
    },
    {
      "inputs": [
        {
          "internalType": "uint256",
          "name": "eventId",
          "type": "uint256"
        },
        {
          "internalType": "address",
          "name": "ticketHolder",
          "type": "address"
        },
        {
          "internalType": "bool",
          "name": "transformToSouvenir",
          "type": "bool"
        }
      ],
      "name": "useTicket",
      "outputs": [],
      "stateMutability": "nonpayable",
      "type": "function"
    },
    {
      "inputs": [
        {
          "internalType": "uint256",
          "name": "",
          "type": "uint256"
        },
        {
          "internalType": "address",
          "name": "",
          "type": "address"
        }
      ],
      "name": "usedTickets",
      "outputs": [
        {
          "internalType": "bool",
          "name": "",
          "type": "bool"
        }
      ],
      "stateMutability": "view",
      "type": "function"
    }
  ],
  "bytecode": "0x60c06040526011608090815270556e636861696e6564205469636b65747360781b60a05260089062000032908262000205565b506040805180820190915260048152630aa9c86960e31b60208201526009906200005d908262000205565b503480156200006b57600080fd5b50604051620051a5380380620051a58339810160408190526200008e91620002d1565b6040805160208101909152600081523390620000aa81620000fc565b506001600160a01b038116620000da57604051631e4fbdf760e01b81526000600482015260240160405180910390fd5b620000e5816200010e565b50600a620000f4828262000205565b5050620003a6565b60026200010a828262000205565b5050565b600380546001600160a01b038381166001600160a01b0319831681179093556040519116919082907f8be0079c531659141344cd1fd0a4f28419497f9722a3daafe3b4186f6b6457e090600090a35050565b634e487b7160e01b600052604160045260246000fd5b600181811c908216806200018b57607f821691505b602082108103620001ac57634e487b7160e01b600052602260045260246000fd5b50919050565b601f8211156200020057600081815260208120601f850160051c81016020861015620001db5750805b601f850160051c820191505b81811015620001fc57828155600101620001e7565b5050505b505050565b81516001600160401b0381111562000221576200022162000160565b620002398162000232845462000176565b84620001b2565b602080601f831160018114620002715760008415620002585750858301515b600019600386901b1c1916600185901b178555620001fc565b600085815260208120601f198616915b82811015620002a25788860151825594840194600190910190840162000281565b5085821015620002c15787850151600019600388901b60f8161c191681555b5050505050600190811b01905550565b60006020808385031215620002e557600080fd5b82516001600160401b0380821115620002fd57600080fd5b818501915085601f8301126200031257600080fd5b81518181111562000327576200032762000160565b604051601f8201601f19908116603f0116810190838211818310171562000352576200035262000160565b8160405282815288868487010111156200036b57600080fd5b600093505b828410156200038f578484018601518185018701529285019262000370565b600086848301015280965050505050505092915050565b614def80620003b66000396000f3fe608060405234801561001057600080fd5b50600436106102525760003560e01c8063715018a611610146578063bc2336e2116100c3578063e985e9c511610087578063e985e9c51461063e578063edb2b21414610651578063f242432a14610664578063f2fde38b14610677578063f5298aca1461068a578063fe6ad9d51461069d57600080fd5b8063bc2336e21461058d578063bd85b039146105b0578063c33c66fa146105d0578063e1313346146105f2578063e41394931461062b57600080fd5b806395d89b411161010a57806395d89b411461051e578063a22cb46514610526578063a8cb2f3714610539578063aa7c4df514610567578063b4611fa81461057a57600080fd5b8063715018a6146104b257806373f20eb6146104ba57806385af5762146104cd5780638920dd14146104e05780638da5cb5b1461050357600080fd5b80632a55205a116101d45780634e1273f4116101985780634e1273f41461040f5780634f558e791461042f57806355f804b3146104515780635bcd5dfb146104645780636b20c4541461049f57600080fd5b80632a55205a146103825780632eb2c2d6146103b457806334bcadb6146103c9578063417ac869146103e957806347fb430f146103fc57600080fd5b8063103f770f1161021b578063103f770f146102f0578063166cc9441461031857806318160ddd146103385780632432ada514610340578063268bad9b1461036057600080fd5b8062fdd58e1461025757806301ffc9a71461027d57806306fdde03146102a05780630b791430146102b55780630e89341c146102dd575b600080fd5b61026a610265366004613d6e565b6106bd565b6040519081526020015b60405180910390f35b61029061028b366004613dae565b6106e5565b6040519015158152602001610274565b6102a86106f0565b6040516102749190613e1b565b6102c86102c3366004613e2e565b61077e565b60405161027499989796959493929190613e47565b6102a86102eb366004613e2e565b6108f6565b6103036102fe366004613f77565b610b5b565b60408051928352602083019190915201610274565b61026a610326366004613e2e565b600f6020526000908152604090205481565b60055461026a565b61026a61034e366004613e2e565b60136020526000908152604090205481565b61037361036e366004613fcd565b610c67565b60405161027493929190613fef565b610395610390366004613fcd565b610ec5565b604080516001600160a01b039093168352602083019190915201610274565b6103c76103c23660046140c0565b610f4a565b005b61026a6103d7366004613e2e565b60126020526000908152604090205481565b6103c76103f7366004614180565b610fb1565b61026a61040a3660046141bc565b6110d9565b61042261041d3660046142c8565b61176a565b6040516102749190614366565b61029061043d366004613e2e565b600090815260046020526040902054151590565b6103c761045f366004614379565b61183e565b6104926104723660046143b5565b600d60209081526000928352604080842090915290825290205460ff1681565b60405161027491906143f7565b6103c76104ad366004614411565b611856565b6103c76118ba565b6103c76104c836600461447a565b6118ce565b6103c76104db3660046144d8565b611a1e565b6104f36104ee366004613fcd565b611da7565b6040516102749493929190614597565b6003546040516001600160a01b039091168152602001610274565b6102a8611e67565b6103c76105343660046145da565b611e74565b6102906105473660046143b5565b600c60209081526000928352604080842090915290825290205460ff1681565b610290610575366004614604565b611e7f565b6103c761058836600461463d565b6121f8565b6105a061059b366004613fcd565b612376565b6040516102749493929190614679565b61026a6105be366004613e2e565b60009081526004602052604090205490565b6105e36105de366004613f77565b612544565b604051610274939291906146c6565b6104926106003660046143b5565b6000918252600d602090815260408084206001600160a01b0393909316845291905290205460ff1690565b6103c76106393660046146eb565b612614565b61029061064c36600461471e565b612897565b6103c761065f3660046147c7565b6128c5565b6103c7610672366004614884565b612a49565b6103c76106853660046148e8565b612d5a565b6103c7610698366004614903565b612d98565b6106b06106ab366004613fcd565b612dce565b604051610274919061498b565b6000818152602081815260408083206001600160a01b03861684529091529020545b92915050565b60006106df82613104565b600880546106fd90614a11565b80601f016020809104026020016040519081016040528092919081815260200182805461072990614a11565b80156107765780601f1061074b57610100808354040283529160200191610776565b820191906000526020600020905b81548152906001019060200180831161075957829003601f168201915b505050505081565b600b602052600090815260409020805460018201546002830154600384015460048501805494959394929360ff8084169461010090940416929091906107c390614a11565b80601f01602080910402602001604051908101604052809291908181526020018280546107ef90614a11565b801561083c5780601f106108115761010080835404028352916020019161083c565b820191906000526020600020905b81548152906001019060200180831161081f57829003601f168201915b50505050509080600501805461085190614a11565b80601f016020809104026020016040519081016040528092919081815260200182805461087d90614a11565b80156108ca5780601f1061089f576101008083540402835291602001916108ca565b820191906000526020600020905b8154815290600101906020018083116108ad57829003601f168201915b505050600690930154919250506001600160601b038116906001600160a01b03600160601b9091041689565b60606000610907620f424084614a61565b6000818152600b602052604090205490915061093e5760405162461bcd60e51b815260040161093590614a83565b60405180910390fd5b6000818152600b6020908152604080832081516101208101835281548152600182015493810193909352600281015491830191909152600381015460ff80821615156060850152610100909104161515608083015260048101805460a0840191906109a890614a11565b80601f01602080910402602001604051908101604052809291908181526020018280546109d490614a11565b8015610a215780601f106109f657610100808354040283529160200191610a21565b820191906000526020600020905b815481529060010190602001808311610a0457829003601f168201915b50505050508152602001600582018054610a3a90614a11565b80601f0160208091040260200160405190810160405280929190818152602001828054610a6690614a11565b8015610ab35780601f10610a8857610100808354040283529160200191610ab3565b820191906000526020600020905b815481529060010190602001808311610a9657829003601f168201915b5050509183525050600691909101546001600160601b0381166020830152600160601b90046001600160a01b031660409091015260c08101515190915015801590610b015750806040015142115b15610b115760c001519392505050565b60a08101515115610b275760a001519392505050565b600a610b3285613129565b604051602001610b43929190614ab1565b60405160208183030381529060405292505050919050565b60008381526011602090815260408083206001600160a01b0386168452909152808220905182918291610b8f908690614b38565b9081526020016040518091039020604051806060016040529081600082018054610bb890614a11565b80601f0160208091040260200160405190810160405280929190818152602001828054610be490614a11565b8015610c315780601f10610c0657610100808354040283529160200191610c31565b820191906000526020600020905b815481529060010190602001808311610c1457829003601f168201915b50505050508152602001600182015481526020016002820154815250509050806020015181604001519250925050935093915050565b60608060606000601060008781526020019081526020016000206000868152602001908152602001600020604051806080016040529081600082018054610cad90614a11565b80601f0160208091040260200160405190810160405280929190818152602001828054610cd990614a11565b8015610d265780601f10610cfb57610100808354040283529160200191610d26565b820191906000526020600020905b815481529060010190602001808311610d0957829003601f168201915b50505050508152602001600182018054610d3f90614a11565b80601f0160208091040260200160405190810160405280929190818152602001828054610d6b90614a11565b8015610db85780601f10610d8d57610100808354040283529160200191610db8565b820191906000526020600020905b815481529060010190602001808311610d9b57829003601f168201915b50505050508152602001600282018054610dd190614a11565b80601f0160208091040260200160405190810160405280929190818152602001828054610dfd90614a11565b8015610e4a5780601f10610e1f57610100808354040283529160200191610e4a565b820191906000526020600020905b815481529060010190602001808311610e2d57829003601f168201915b50505091835250506003919091015460ff1615156020909101526060810151909150610eab5760405162461bcd60e51b815260206004820152601060248201526f139bc81cd9585d08185cdcda59db995960821b6044820152606401610935565b805160208201516040909201519097919650945092505050565b600082815260076020526040812080548291906001600160a01b03811690600160a01b90046001600160601b031681610f195750506006546001600160a01b03811690600160a01b90046001600160601b03165b6000612710610f316001600160601b03841689614b54565b610f3b9190614a61565b92989297509195505050505050565b336001600160a01b0386168114801590610f6b5750610f698682612897565b155b15610f9c5760405163711bec9160e11b81526001600160a01b03808316600483015287166024820152604401610935565b610fa986868686866131bb565b505050505050565b610fb961321b565b6000838152600b6020526040902054610fe45760405162461bcd60e51b815260040161093590614a83565b612710816001600160601b0316111561103f5760405162461bcd60e51b815260206004820152601a60248201527f526f79616c74792063616e6e6f742065786365656420313030250000000000006044820152606401610935565b6000838152600b602052604090206001600160601b0382166001600160a01b038416600160601b026bffffffffffffffffffffffff191617600690910155611088838383613248565b604080516001600160a01b03841681526001600160601b038316602082015284917fbefc93e7daa33253e132c907f20544f15e5e331b7f4e917cabee1d6097a1f1f8910160405180910390a2505050565b60006110e361321b565b6000878152600b6020526040902060030154610100900460ff1661113f5760405162461bcd60e51b81526020600482015260136024820152724576656e74206973206e6f742061637469766560681b6044820152606401610935565b6000878152600f6020526040902054861061118b5760405162461bcd60e51b815260206004820152600c60248201526b24b73b30b634b2103a34b2b960a11b6044820152606401610935565b6001600160a01b0385166111e15760405162461bcd60e51b815260206004820152601960248201527f496e76616c696420726563697069656e742061646472657373000000000000006044820152606401610935565b6000878152600e60209081526040808320898452909152808220815160c081019092528054829060ff16600481111561121c5761121c6143e1565b600481111561122d5761122d6143e1565b815260200160018201805461124190614a11565b80601f016020809104026020016040519081016040528092919081815260200182805461126d90614a11565b80156112ba5780601f1061128f576101008083540402835291602001916112ba565b820191906000526020600020905b81548152906001019060200180831161129d57829003601f168201915b50505050508152602001600282015481526020016003820154815260200160048201805480602002602001604051908101604052809291908181526020016000905b828210156113a857838290600052602060002001805461131b90614a11565b80601f016020809104026020016040519081016040528092919081815260200182805461134790614a11565b80156113945780601f1061136957610100808354040283529160200191611394565b820191906000526020600020905b81548152906001019060200180831161137757829003601f168201915b5050505050815260200190600101906112fc565b50505050815260200160058201805480602002602001604051908101604052809291908181526020016000905b828210156114815783829060005260206000200180546113f490614a11565b80601f016020809104026020016040519081016040528092919081815260200182805461142090614a11565b801561146d5780601f106114425761010080835404028352916020019161146d565b820191906000526020600020905b81548152906001019060200180831161145057829003601f168201915b5050505050815260200190600101906113d5565b50505091525050600089815260136020526040812054919250906114a88a620f4240614b54565b6114b29190614b6b565b60008a81526013602052604081208054929350906114cf83614b7e565b90915550506000898152600b60209081526040808320546004909252909120541061152d5760405162461bcd60e51b815260206004820152600e60248201526d115d995b9d081cdbdb19081bdd5d60921b6044820152606401610935565b611549878260016040518060200160405280600081525061330a565b60008181526012602090815260408083208b90558b8352600d82528083206001600160a01b038b1684529091529020805460ff19169055855115611654576040805160808101825287815260208082018890528183018790526001606083015260008c81526010825283812085825290915291909120815181906115cd9082614bdd565b50602082015160018201906115e29082614bdd565b50604082015160028201906115f79082614bdd565b50606091909101516003909101805460ff191691151591909117905560405181908a907f88257bb4915cfaf23ff1f49a4d5278601267800249071a71f74369a6f35b72b49061164b908a908a908a90613fef565b60405180910390a35b60005b8260a00151518110156117185760008360a00151828151811061167c5761167c614c9c565b6020908102919091018101516040805160608101825282815260018185015260008183018190528f8152601185528281206001600160a01b038f168252909452928190209051919350906116d1908490614b38565b908152604051908190036020019020815181906116ee9082614bdd565b5060208201516001820155604090910151600290910155508061171081614b7e565b915050611657565b50866001600160a01b0316818a7f4fe0f5bb11eb6ab81c428fb83261719e5b22f84b3e1942cd491c3777504bb8518b60405161175691815260200190565b60405180910390a498975050505050505050565b6060815183511461179b5781518351604051635b05999160e01b815260048101929092526024820152604401610935565b600083516001600160401b038111156117b6576117b6613ec2565b6040519080825280602002602001820160405280156117df578160200160208202803683370190505b50905060005b845181101561183657602080820286010151611809906020808402870101516106bd565b82828151811061181b5761181b614c9c565b602090810291909101015261182f81614b7e565b90506117e5565b509392505050565b61184661321b565b600a6118528282614bdd565b5050565b6001600160a01b038316331480159061187657506118748333612897565b155b156118aa57335b60405163711bec9160e11b81526001600160a01b0391821660048201529084166024820152604401610935565b6118b5838383613367565b505050565b6118c261321b565b6118cc60006133ad565b565b6118d661321b565b60008481526011602090815260408083206001600160a01b03871684529091528082209051611906908590614b38565b90815260200160405180910390209050600081600101541161195f5760405162461bcd60e51b81526020600482015260126024820152715065726b206e6f7420617661696c61626c6560701b6044820152606401610935565b80600101548282600201546119749190614b6b565b11156119b85760405162461bcd60e51b815260206004820152601360248201527214195c9ac81b1a5b5a5d08195e18d959591959606a1b6044820152606401610935565b818160020160008282546119cc9190614b6b565b92505081905550836001600160a01b0316857f4e3e5d9908b5bd9975f87efcebca93c1b24a2b205aa71fc34300ab7bf7e16b908585604051611a0f929190614cb2565b60405180910390a35050505050565b611a2661321b565b6000888152600b602052604090205415611a795760405162461bcd60e51b81526020600482015260146024820152734576656e7420616c72656164792065786973747360601b6044820152606401610935565b60008711611ad35760405162461bcd60e51b815260206004820152602160248201527f4d617820737570706c79206d7573742062652067726561746572207468616e206044820152600360fc1b6064820152608401610935565b428611611b225760405162461bcd60e51b815260206004820152601b60248201527f4576656e74206d75737420626520696e207468652066757475726500000000006044820152606401610935565b858511611b715760405162461bcd60e51b815260206004820152601d60248201527f4576656e7420656e64206d7573742062652061667465722073746172740000006044820152606401610935565b612710816001600160601b03161115611bcc5760405162461bcd60e51b815260206004820152601a60248201527f526f79616c74792063616e6e6f742065786365656420313030250000000000006044820152606401610935565b604051806101200160405280888152602001878152602001868152602001600015158152602001600115158152602001858152602001848152602001826001600160601b03168152602001836001600160a01b0316815250600b60008a815260200190815260200160002060008201518160000155602082015181600101556040820151816002015560608201518160030160006101000a81548160ff02191690831515021790555060808201518160030160016101000a81548160ff02191690831515021790555060a0820151816004019081611caa9190614bdd565b5060c08201516005820190611cbf9082614bdd565b5060e0820151610100909201516001600160a01b0316600160601b026001600160601b0392831617600690910155811615801590611d0557506001600160a01b03821615155b15611d6257611d15888383613248565b604080516001600160a01b03841681526001600160601b038316602082015289917fbefc93e7daa33253e132c907f20544f15e5e331b7f4e917cabee1d6097a1f1f8910160405180910390a25b604080518881526020810188905289917f06168e40fac2576e22d73ab2e9efa79b4e7530dd3dd411ab7d8862d04be798a2910160405180910390a25050505050505050565b600e6020908152600092835260408084209091529082529020805460018201805460ff9092169291611dd890614a11565b80601f0160208091040260200160405190810160405280929190818152602001828054611e0490614a11565b8015611e515780601f10611e2657610100808354040283529160200191611e51565b820191906000526020600020905b815481529060010190602001808311611e3457829003601f168201915b5050505050908060020154908060030154905084565b600980546106fd90614a11565b6118523383836133ff565b600082815260046020526040812054611ed15760405162461bcd60e51b8152602060048201526014602482015273151bdad95b88191bd95cc81b9bdd08195e1a5cdd60621b6044820152606401610935565b600083815260126020908152604080832054878452600e8352818420818552909252808320815160c081019092528054929392829060ff166004811115611f1a57611f1a6143e1565b6004811115611f2b57611f2b6143e1565b8152602001600182018054611f3f90614a11565b80601f0160208091040260200160405190810160405280929190818152602001828054611f6b90614a11565b8015611fb85780601f10611f8d57610100808354040283529160200191611fb8565b820191906000526020600020905b815481529060010190602001808311611f9b57829003601f168201915b50505050508152602001600282015481526020016003820154815260200160048201805480602002602001604051908101604052809291908181526020016000905b828210156120a657838290600052602060002001805461201990614a11565b80601f016020809104026020016040519081016040528092919081815260200182805461204590614a11565b80156120925780601f1061206757610100808354040283529160200191612092565b820191906000526020600020905b81548152906001019060200180831161207557829003601f168201915b505050505081526020019060010190611ffa565b50505050815260200160058201805480602002602001604051908101604052809291908181526020016000905b8282101561217f5783829060005260206000200180546120f290614a11565b80601f016020809104026020016040519081016040528092919081815260200182805461211e90614a11565b801561216b5780601f106121405761010080835404028352916020019161216b565b820191906000526020600020905b81548152906001019060200180831161214e57829003601f168201915b5050505050815260200190600101906120d3565b5050505081525050905060005b8160800151518110156121e9578480519060200120826080015182815181106121b7576121b7614c9c565b602002602001015180519060200120036121d757600193505050506121f1565b806121e181614b7e565b91505061218c565b506000925050505b9392505050565b61220061321b565b6000828152600b602052604090206002015442116122525760405162461bcd60e51b815260206004820152600f60248201526e115d995b9d081b9bdd08195b991959608a1b6044820152606401610935565b60005b81518110156118b5576000838152600d6020526040812083516001929085908590811061228457612284614c9c565b6020908102919091018101516001600160a01b031682528101919091526040016000205460ff1660028111156122bc576122bc6143e1565b03612364576000838152600d602052604081208351600292908590859081106122e7576122e7614c9c565b6020908102919091018101516001600160a01b03168252810191909152604001600020805460ff19166001836002811115612324576123246143e1565b021790555082837ff4245df30944233e7208c51c270455d1128b5ec5c18d623367b49e7254214b9d600260405161235b91906143f7565b60405180910390a35b8061236e81614b7e565b915050612255565b601060209081526000928352604080842090915290825290208054819061239c90614a11565b80601f01602080910402602001604051908101604052809291908181526020018280546123c890614a11565b80156124155780601f106123ea57610100808354040283529160200191612415565b820191906000526020600020905b8154815290600101906020018083116123f857829003601f168201915b50505050509080600101805461242a90614a11565b80601f016020809104026020016040519081016040528092919081815260200182805461245690614a11565b80156124a35780601f10612478576101008083540402835291602001916124a3565b820191906000526020600020905b81548152906001019060200180831161248657829003601f168201915b5050505050908060020180546124b890614a11565b80601f01602080910402602001604051908101604052809291908181526020018280546124e490614a11565b80156125315780601f1061250657610100808354040283529160200191612531565b820191906000526020600020905b81548152906001019060200180831161251457829003601f168201915b5050506003909301549192505060ff1684565b601160209081526000938452604080852082529284529190922082518084018301805192815290830193909201929092209190528054819061258590614a11565b80601f01602080910402602001604051908101604052809291908181526020018280546125b190614a11565b80156125fe5780601f106125d3576101008083540402835291602001916125fe565b820191906000526020600020905b8154815290600101906020018083116125e157829003601f168201915b5050505050908060010154908060020154905083565b61261c61321b565b600061262883856106bd565b116126675760405162461bcd60e51b815260206004820152600f60248201526e139bc81d1a58dad95d081bdddb9959608a1b6044820152606401610935565b6000838152600c602090815260408083206001600160a01b038616845290915290205460ff16156126d05760405162461bcd60e51b8152602060048201526013602482015272151a58dad95d08185b1c9958591e481d5cd959606a1b6044820152606401610935565b6000838152600d602090815260408083206001600160a01b038616845290915281205460ff166002811115612707576127076143e1565b146127485760405162461bcd60e51b81526020600482015260116024820152705469636b6574206e6f742061637469766560781b6044820152606401610935565b6000838152600c602090815260408083206001600160a01b03861684529091529020805460ff1916600117905580156127ee576000838152600d602090815260408083206001600160a01b0386168452909152902080546002919060ff1916600183021790555082837ff4245df30944233e7208c51c270455d1128b5ec5c18d623367b49e7254214b9d60026040516127e191906143f7565b60405180910390a361285c565b6000838152600d602090815260408083206001600160a01b0386168452909152902080546001919060ff19168280021790555082837ff4245df30944233e7208c51c270455d1128b5ec5c18d623367b49e7254214b9d600160405161285391906143f7565b60405180910390a35b6040516001600160a01b0383169084907f07c2221c844690cb15e32907258d38446cd4a17bc9b84e2069cd955615d547fd90600090a3505050565b6001600160a01b03918216600090815260016020908152604080832093909416825291909152205460ff1690565b6128cd61321b565b6000878152600b60205260409020546128f85760405162461bcd60e51b815260040161093590614a83565b6000878152600f60205260409081902054815160c081019092529080876004811115612926576129266143e1565b815260208082018a90526040808301899052606083018890526080830187905260a090920185905260008b8152600e82528281208582529091522081518154829060ff1916600183600481111561297f5761297f6143e1565b0217905550602082015160018201906129989082614bdd565b506040820151600282015560608201516003820155608082015180516129c8916004840191602090910190613c95565b5060a082015180516129e4916005840191602090910190613c95565b5050506000888152600f60205260408120805491612a0183614b7e565b919050555080887f73f2c5150dd3bafcdfcfd66cdd6938bc381635e48cebe16c6d424dfcf68fe85489604051612a379190613e1b565b60405180910390a35050505050505050565b6001600160a01b0385161580612a6657506001600160a01b038416155b80612a7e57506003546001600160a01b038681169116145b15612a9557612a908585858585613495565b612d53565b6000612aa4620f424085614a61565b6000818152600b6020908152604080832081516101208101835281548152600182015493810193909352600281015491830191909152600381015460ff80821615156060850152610100909104161515608083015260048101805494955092939192909160a084019190612b1790614a11565b80601f0160208091040260200160405190810160405280929190818152602001828054612b4390614a11565b8015612b905780601f10612b6557610100808354040283529160200191612b90565b820191906000526020600020905b815481529060010190602001808311612b7357829003601f168201915b50505050508152602001600582018054612ba990614a11565b80601f0160208091040260200160405190810160405280929190818152602001828054612bd590614a11565b8015612c225780601f10612bf757610100808354040283529160200191612c22565b820191906000526020600020905b815481529060010190602001808311612c0557829003601f168201915b5050509183525050600691909101546001600160601b038116602080840191909152600160601b9091046001600160a01b0316604090920191909152810151909150421080612c745750806040015142115b612ccc5760405162461bcd60e51b8152602060048201526024808201527f43616e6e6f74207472616e73666572207469636b65747320647572696e6720656044820152631d995b9d60e21b6064820152608401610935565b806060015180612ce0575080604001514210155b612d435760405162461bcd60e51b815260206004820152602e60248201527f5469636b65747320617265206e6f6e2d7472616e7366657261626c652062656660448201526d6f7265206576656e7420656e647360901b6064820152608401610935565b612d508787878787613495565b50505b5050505050565b612d6261321b565b6001600160a01b038116612d8c57604051631e4fbdf760e01b815260006004820152602401610935565b612d95816133ad565b50565b6001600160a01b0383163314801590612db85750612db68333612897565b155b15612dc3573361187d565b6118b58383836134f4565b612e086040805160c08101909152806000815260200160608152602001600081526020016000815260200160608152602001606081525090565b6000838152600f60205260409020548210612e545760405162461bcd60e51b815260206004820152600c60248201526b24b73b30b634b2103a34b2b960a11b6044820152606401610935565b6000838152600e6020908152604080832085845290915290819020815160c081019092528054829060ff166004811115612e9057612e906143e1565b6004811115612ea157612ea16143e1565b8152602001600182018054612eb590614a11565b80601f0160208091040260200160405190810160405280929190818152602001828054612ee190614a11565b8015612f2e5780601f10612f0357610100808354040283529160200191612f2e565b820191906000526020600020905b815481529060010190602001808311612f1157829003601f168201915b50505050508152602001600282015481526020016003820154815260200160048201805480602002602001604051908101604052809291908181526020016000905b8282101561301c578382906000526020600020018054612f8f90614a11565b80601f0160208091040260200160405190810160405280929190818152602001828054612fbb90614a11565b80156130085780601f10612fdd57610100808354040283529160200191613008565b820191906000526020600020905b815481529060010190602001808311612feb57829003601f168201915b505050505081526020019060010190612f70565b50505050815260200160058201805480602002602001604051908101604052809291908181526020016000905b828210156130f557838290600052602060002001805461306890614a11565b80601f016020809104026020016040519081016040528092919081815260200182805461309490614a11565b80156130e15780601f106130b6576101008083540402835291602001916130e1565b820191906000526020600020905b8154815290600101906020018083116130c457829003601f168201915b505050505081526020019060010190613049565b50505091525090949350505050565b60006001600160e01b0319821663152a902d60e11b14806106df57506106df8261355c565b60606000613136836135ac565b60010190506000816001600160401b0381111561315557613155613ec2565b6040519080825280601f01601f19166020018201604052801561317f576020820181803683370190505b5090508181016020015b600019016f181899199a1a9b1b9c1cb0b131b232b360811b600a86061a8153600a850494508461318957509392505050565b6001600160a01b0384166131e557604051632bfa23e760e11b815260006004820152602401610935565b6001600160a01b03851661320e57604051626a0d4560e21b815260006004820152602401610935565b612d538585858585613684565b6003546001600160a01b031633146118cc5760405163118cdaa760e01b8152336004820152602401610935565b6127106001600160601b03821681101561328e5760405163dfd1fc1b60e01b8152600481018590526001600160601b038316602482015260448101829052606401610935565b6001600160a01b0383166132bf57604051634b4f842960e11b81526004810185905260006024820152604401610935565b506040805180820182526001600160a01b0393841681526001600160601b0392831660208083019182526000968752600790529190942093519051909116600160a01b029116179055565b6001600160a01b03841661333457604051632bfa23e760e11b815260006004820152602401610935565b60408051600180825260208201869052818301908152606082018590526080820190925290610fa9600087848487613684565b6001600160a01b03831661339057604051626a0d4560e21b815260006004820152602401610935565b6118b5836000848460405180602001604052806000815250613684565b600380546001600160a01b038381166001600160a01b0319831681179093556040519116919082907f8be0079c531659141344cd1fd0a4f28419497f9722a3daafe3b4186f6b6457e090600090a35050565b6001600160a01b0382166134285760405162ced3e160e81b815260006004820152602401610935565b6001600160a01b03838116600081815260016020908152604080832094871680845294825291829020805460ff191686151590811790915591519182527f17307eab39ab6107e8899845ad3d59bd9653f200f220920489ca2b5937696c31910160405180910390a3505050565b336001600160a01b03861681148015906134b657506134b48682612897565b155b156134e75760405163711bec9160e11b81526001600160a01b03808316600483015287166024820152604401610935565b610fa986868686866136d7565b6001600160a01b03831661351d57604051626a0d4560e21b815260006004820152602401610935565b604080516001808252602082018590528183019081526060820184905260a08201909252600060808201818152919291612d5391879185908590613684565b60006001600160e01b03198216636cdb3d1360e11b148061358d57506001600160e01b031982166303a24d0760e21b145b806106df57506301ffc9a760e01b6001600160e01b03198316146106df565b60008072184f03e93ff9f4daa797ed6e38ed64bf6a1f0160401b83106135eb5772184f03e93ff9f4daa797ed6e38ed64bf6a1f0160401b830492506040015b6d04ee2d6d415b85acef81000000008310613617576d04ee2d6d415b85acef8100000000830492506020015b662386f26fc10000831061363557662386f26fc10000830492506010015b6305f5e100831061364d576305f5e100830492506008015b612710831061366157612710830492506004015b60648310613673576064830492506002015b600a83106106df5760010192915050565b6136908585858561375c565b6001600160a01b03841615612d5357825133906001036136c957602084810151908401516136c283898985858961376e565b5050610fa9565b610fa9818787878787613892565b6001600160a01b03841661370157604051632bfa23e760e11b815260006004820152602401610935565b6001600160a01b03851661372a57604051626a0d4560e21b815260006004820152602401610935565b60408051600180825260208201869052818301908152606082018590526080820190925290612d508787848487613684565b6137688484848461397b565b50505050565b6001600160a01b0384163b15610fa95760405163f23a6e6160e01b81526001600160a01b0385169063f23a6e61906137b29089908990889088908890600401614cd4565b6020604051808303816000875af19250505080156137ed575060408051601f3d908101601f191682019092526137ea91810190614d19565b60015b613856573d80801561381b576040519150601f19603f3d011682016040523d82523d6000602084013e613820565b606091505b50805160000361384e57604051632bfa23e760e11b81526001600160a01b0386166004820152602401610935565b805160208201fd5b6001600160e01b0319811663f23a6e6160e01b14612d5057604051632bfa23e760e11b81526001600160a01b0386166004820152602401610935565b6001600160a01b0384163b15610fa95760405163bc197c8160e01b81526001600160a01b0385169063bc197c81906138d69089908990889088908890600401614d36565b6020604051808303816000875af1925050508015613911575060408051601f3d908101601f1916820190925261390e91810190614d19565b60015b61393f573d80801561381b576040519150601f19603f3d011682016040523d82523d6000602084013e613820565b6001600160e01b0319811663bc197c8160e01b14612d5057604051632bfa23e760e11b81526001600160a01b0386166004820152602401610935565b61398784848484613a78565b6001600160a01b038416613a10576000805b83518110156139f657602081810284810182015190860182015160009081526004909252604082208054919283926139d2908490614b6b565b909155506139e290508184614b6b565b925050806139ef90614b7e565b9050613999565b508060056000828254613a099190614b6b565b9091555050505b6001600160a01b038316613768576000805b8351811015613a67576020818102848101820151908601820151600090815260049092526040909120805482900390559190910190613a6081614b7e565b9050613a22565b506005805491909103905550505050565b8051825114613aa75781518151604051635b05999160e01b815260048101929092526024820152604401610935565b3360005b8351811015613bb6576020818102858101820151908501909101516001600160a01b03881615613b5e576000828152602081815260408083206001600160a01b038c16845290915290205481811015613b37576040516303dee4c560e01b81526001600160a01b038a166004820152602481018290526044810183905260648101849052608401610935565b6000838152602081815260408083206001600160a01b038d16845290915290209082900390555b6001600160a01b03871615613ba3576000828152602081815260408083206001600160a01b038b16845290915281208054839290613b9d908490614b6b565b90915550505b505080613baf90614b7e565b9050613aab565b508251600103613c375760208301516000906020840151909150856001600160a01b0316876001600160a01b0316846001600160a01b03167fc3d58168c5ae7397731d063d5bbf3d657854427343f4c083240f7aacaa2d0f628585604051613c28929190918252602082015260400190565b60405180910390a45050612d53565b836001600160a01b0316856001600160a01b0316826001600160a01b03167f4a39dc06d4c0dbc64b70af90fd698a233a518aa5d07e595d983b8c0526c8f7fb8686604051613c86929190614d94565b60405180910390a45050505050565b828054828255906000526020600020908101928215613cdb579160200282015b82811115613cdb5782518290613ccb9082614bdd565b5091602001919060010190613cb5565b50613ce7929150613ceb565b5090565b80821115613ce7576000613cff8282613d08565b50600101613ceb565b508054613d1490614a11565b6000825580601f10613d24575050565b601f016020900490600052602060002090810190612d9591905b80821115613ce75760008155600101613d3e565b80356001600160a01b0381168114613d6957600080fd5b919050565b60008060408385031215613d8157600080fd5b613d8a83613d52565b946020939093013593505050565b6001600160e01b031981168114612d9557600080fd5b600060208284031215613dc057600080fd5b81356121f181613d98565b60005b83811015613de6578181015183820152602001613dce565b50506000910152565b60008151808452613e07816020860160208601613dcb565b601f01601f19169290920160200192915050565b6020815260006121f16020830184613def565b600060208284031215613e4057600080fd5b5035919050565b60006101208b83528a6020840152896040840152881515606084015287151560808401528060a0840152613e7d81840188613def565b905082810360c0840152613e918187613def565b6001600160601b039590951660e084015250506001600160a01b039190911661010090910152979650505050505050565b634e487b7160e01b600052604160045260246000fd5b604051601f8201601f191681016001600160401b0381118282101715613f0057613f00613ec2565b604052919050565b600082601f830112613f1957600080fd5b81356001600160401b03811115613f3257613f32613ec2565b613f45601f8201601f1916602001613ed8565b818152846020838601011115613f5a57600080fd5b816020850160208301376000918101602001919091529392505050565b600080600060608486031215613f8c57600080fd5b83359250613f9c60208501613d52565b915060408401356001600160401b03811115613fb757600080fd5b613fc386828701613f08565b9150509250925092565b60008060408385031215613fe057600080fd5b50508035926020909101359150565b6060815260006140026060830186613def565b82810360208401526140148186613def565b905082810360408401526140288185613def565b9695505050505050565b60006001600160401b0382111561404b5761404b613ec2565b5060051b60200190565b600082601f83011261406657600080fd5b8135602061407b61407683614032565b613ed8565b82815260059290921b8401810191818101908684111561409a57600080fd5b8286015b848110156140b5578035835291830191830161409e565b509695505050505050565b600080600080600060a086880312156140d857600080fd5b6140e186613d52565b94506140ef60208701613d52565b935060408601356001600160401b038082111561410b57600080fd5b61411789838a01614055565b9450606088013591508082111561412d57600080fd5b61413989838a01614055565b9350608088013591508082111561414f57600080fd5b5061415c88828901613f08565b9150509295509295909350565b80356001600160601b0381168114613d6957600080fd5b60008060006060848603121561419557600080fd5b833592506141a560208501613d52565b91506141b360408501614169565b90509250925092565b60008060008060008060c087890312156141d557600080fd5b86359550602087013594506141ec60408801613d52565b935060608701356001600160401b038082111561420857600080fd5b6142148a838b01613f08565b9450608089013591508082111561422a57600080fd5b6142368a838b01613f08565b935060a089013591508082111561424c57600080fd5b5061425989828a01613f08565b9150509295509295509295565b600082601f83011261427757600080fd5b8135602061428761407683614032565b82815260059290921b840181019181810190868411156142a657600080fd5b8286015b848110156140b5576142bb81613d52565b83529183019183016142aa565b600080604083850312156142db57600080fd5b82356001600160401b03808211156142f257600080fd5b6142fe86838701614266565b9350602085013591508082111561431457600080fd5b5061432185828601614055565b9150509250929050565b600081518084526020808501945080840160005b8381101561435b5781518752958201959082019060010161433f565b509495945050505050565b6020815260006121f1602083018461432b565b60006020828403121561438b57600080fd5b81356001600160401b038111156143a157600080fd5b6143ad84828501613f08565b949350505050565b600080604083850312156143c857600080fd5b823591506143d860208401613d52565b90509250929050565b634e487b7160e01b600052602160045260246000fd5b602081016003831061440b5761440b6143e1565b91905290565b60008060006060848603121561442657600080fd5b61442f84613d52565b925060208401356001600160401b038082111561444b57600080fd5b61445787838801614055565b9350604086013591508082111561446d57600080fd5b50613fc386828701614055565b6000806000806080858703121561449057600080fd5b843593506144a060208601613d52565b925060408501356001600160401b038111156144bb57600080fd5b6144c787828801613f08565b949793965093946060013593505050565b600080600080600080600080610100898b0312156144f557600080fd5b8835975060208901359650604089013595506060890135945060808901356001600160401b038082111561452857600080fd5b6145348c838d01613f08565b955060a08b013591508082111561454a57600080fd5b506145578b828c01613f08565b93505061456660c08a01613d52565b915061457460e08a01614169565b90509295985092959890939650565b60058110614593576145936143e1565b9052565b6145a18186614583565b6080602082015260006145b76080830186613def565b6040830194909452506060015292915050565b80358015158114613d6957600080fd5b600080604083850312156145ed57600080fd5b6145f683613d52565b91506143d8602084016145ca565b60008060006060848603121561461957600080fd5b833592506020840135915060408401356001600160401b03811115613fb757600080fd5b6000806040838503121561465057600080fd5b8235915060208301356001600160401b0381111561466d57600080fd5b61432185828601614266565b60808152600061468c6080830187613def565b828103602084015261469e8187613def565b905082810360408401526146b28186613def565b915050821515606083015295945050505050565b6060815260006146d96060830186613def565b60208301949094525060400152919050565b60008060006060848603121561470057600080fd5b8335925061471060208501613d52565b91506141b3604085016145ca565b6000806040838503121561473157600080fd5b61473a83613d52565b91506143d860208401613d52565b600082601f83011261475957600080fd5b8135602061476961407683614032565b82815260059290921b8401810191818101908684111561478857600080fd5b8286015b848110156140b55780356001600160401b038111156147ab5760008081fd5b6147b98986838b0101613f08565b84525091830191830161478c565b600080600080600080600060e0888a0312156147e257600080fd5b8735965060208801356001600160401b038082111561480057600080fd5b61480c8b838c01613f08565b975060408a013591506005821061482257600080fd5b909550606089013594506080890135935060a0890135908082111561484657600080fd5b6148528b838c01614748565b935060c08a013591508082111561486857600080fd5b506148758a828b01614748565b91505092959891949750929550565b600080600080600060a0868803121561489c57600080fd5b6148a586613d52565b94506148b360208701613d52565b9350604086013592506060860135915060808601356001600160401b038111156148dc57600080fd5b61415c88828901613f08565b6000602082840312156148fa57600080fd5b6121f182613d52565b60008060006060848603121561491857600080fd5b61492184613d52565b95602085013595506040909401359392505050565b600081518084526020808501808196508360051b8101915082860160005b8581101561497e57828403895261496c848351613def565b98850198935090840190600101614954565b5091979650505050505050565b6020815261499d602082018351614583565b6000602083015160c060408401526149b860e0840182613def565b905060408401516060840152606084015160808401526080840151601f19808584030160a08601526149ea8383614936565b925060a08601519150808584030160c086015250614a088282614936565b95945050505050565b600181811c90821680614a2557607f821691505b602082108103614a4557634e487b7160e01b600052602260045260246000fd5b50919050565b634e487b7160e01b600052601160045260246000fd5b600082614a7e57634e487b7160e01b600052601260045260246000fd5b500490565b602080825260149082015273115d995b9d08191bd95cc81b9bdd08195e1a5cdd60621b604082015260600190565b6000808454614abf81614a11565b60018281168015614ad75760018114614aec57614b1b565b60ff1984168752821515830287019450614b1b565b8860005260208060002060005b85811015614b125781548a820152908401908201614af9565b50505082870194505b505050508351614b2f818360208801613dcb565b01949350505050565b60008251614b4a818460208701613dcb565b9190910192915050565b80820281158282048414176106df576106df614a4b565b808201808211156106df576106df614a4b565b600060018201614b9057614b90614a4b565b5060010190565b601f8211156118b557600081815260208120601f850160051c81016020861015614bbe5750805b601f850160051c820191505b81811015610fa957828155600101614bca565b81516001600160401b03811115614bf657614bf6613ec2565b614c0a81614c048454614a11565b84614b97565b602080601f831160018114614c3f5760008415614c275750858301515b600019600386901b1c1916600185901b178555610fa9565b600085815260208120601f198616915b82811015614c6e57888601518255948401946001909101908401614c4f565b5085821015614c8c5787850151600019600388901b60f8161c191681555b5050505050600190811b01905550565b634e487b7160e01b600052603260045260246000fd5b604081526000614cc56040830185613def565b90508260208301529392505050565b6001600160a01b03868116825285166020820152604081018490526060810183905260a060808201819052600090614d0e90830184613def565b979650505050505050565b600060208284031215614d2b57600080fd5b81516121f181613d98565b6001600160a01b0386811682528516602082015260a060408201819052600090614d629083018661432b565b8281036060840152614d74818661432b565b90508281036080840152614d888185613def565b98975050505050505050565b604081526000614da7604083018561432b565b8281036020840152614a08818561432b56fea26469706673582212204d2b29f4f84d1f82bdbe58039510a172ed841a39c02e22a51d4194cd1440ca9c64736f6c63430008140033",
  "linkReferences": {},
  "deployedLinkReferences": {}
}